:020000040800F2
:10000000200C00200D020008C91800082910000863
:1000100069170008E9030008C52500080000000072
:10002000000000000000000000000000551E000855
:100030001904000800000000811D0008412200088A
:1000400027020008270200082702000827020008EC
:1000500027020008270200082702000827020008DC
:100060002702000871060008C106000827020008E0
:1000700027020008270200082702000827020008BC
:1000800027020008270200082702000827020008AC
:10009000270200082702000827020008270200089C
:1000A000270200082702000827020008270200088C
:1000B000A5220008BD220008D5220008270200085A
:1000C000270200082702000827020008270200086C
:1000D000270200082702000827020008270200085C
:1000E00079040008270200082702000827020008F8
:1000F000270200082702000827020008270200083C
:100100002702000827020008ED2200082702000845
:10011000270200082702000827020008270200081B
:10012000270200082702000827020008270200080B
:1001300000F002F800F05AF80AA090E8000C82449F
:100140008344AAF10107DA4501D100F04FF8AFF27C
:10015000090EBAE80F0013F0010F18BFFB1A43F0A5
:1001600001031847D4490000F44900000A444FF045
:10017000000C10F8013B13F0070408BF10F8014B06
:100180001D1108BF10F8015B641E05D010F8016B4B
:10019000641E01F8016BF9D113F0080F1EBF10F8AF
:1001A000014BAD1C0C1B09D16D1E58BF01F801CBD2
:1001B000FAD505E014F8016B01F8016B6D1EF9D555
:1001C0009142D6D37047000000230024002500266A
:1001D000103A28BF78C1FBD8520728BF30C148BFAA
:1001E0000B6070471FB51FBD10B510BD00F038F88B
:1001F0001146FFF7F7FF02F02BFB00F056F803B4AF
:10020000FFF7F2FF03BC02F021FA00000948804723
:1002100009480047FEE7FEE7FEE7FEE7FEE7FEE7E8
:10022000FEE7FEE7FEE7FEE704480549054A064B00
:100230007047000045220008310100082006002018
:10024000200C002020080020200800207047704764
:10025000704770477047000000487047C005002095
:100260007546FFF7F9FFAE4605006946534620F094
:100270000700854618B020B5FFF7D6FFBDE820403F
:100280004FF000064FF000074FF000084FF0000B52
:1002900021F00701AC46ACE8C009ACE8C009ACE805
:1002A000C009ACE8C0098D46704710B50446AFF3ED
:1002B00000802046BDE81040FFF7A1BF4648806996
:1002C00040F00400444988614448006820F470000C
:1002D000424908604048806940F400703E498861A6
:1002E0000846C06840F40070C8600846C06820F442
:1002F0000070C8600846406820F4404048600846E6
:10030000406840F40040486035480068354908407E
:10031000334908600846006808600846006820F411
:1003200080700860081D006820F00200091D086048
:100330000846006820F4602008600846006840F421
:10034000602008600846006840F480100860084695
:10035000006820F40060086021482830006820F41C
:1003600070001F49283108600846006800200860B6
:100370001B480C30006820F4700019490C310860EB
:100380000846006840F4603008601548001D0068A9
:1003900040F001001249091D08600846006840F05D
:1003A0000800086000BF0E48001D006800F008004B
:1003B0000028F8D10A48001D006840F004000849F0
:1003C000091D086000BF0648001D006800F0040019
:1003D0000028F8D1704700000010024000080140DA
:1003E00004240140FFFFF00000BFFEE708B5012133
:1003F000082001F0C7FC1420ADF8000028208DF87B
:10040000030003208DF802006946024800F026FD33
:1004100008BD0000000C01407047000008B5012134
:10042000102001F0AFFC4FF48060ADF800004820D0
:100430008DF8030003208DF8020069460C4800F097
:100440000DFD0220ADF800006946094800F006FDE8
:100450000420ADF800006946054800F0FFFC4FF4A9
:100460008050ADF800006946024800F0F7FC08BD76
:1004700000100140000C014070B560480068002881
:100480007ED14FF400405E4908605E48007808B9AC
:10049000012000E000205B4908705B4800780128DB
:1004A00004D15A480068401C5849086058480078F0
:1004B000012804D157480068401C564908600220B2
:1004C00001F070FC54490860544800680968084409
:1004D00052490860032001F065FC51490860514809
:1004E0000068096808444F490860042001F05AFC7C
:1004F00040424D4908604D480068096808444B492E
:100500000860052001F04EFC404249490860494816
:1005100000680968084447490860642001F06CF8E5
:1005200000F04AFD054603F03FFC044642480168DE
:10053000204603F0B9FA404908604FF07E513F4829
:10054000006803F0B1FA3D49044608603C4903F0F5
:10055000DBFB0ED13A493848006803F013FB044630
:1005600003F006FC3749086000203349086033492E
:10057000086035480068002808DD3348006800E05E
:100580003AE00F2802DA0F202F4908602D48006852
:1005900001F0F4FF80BB2D480078F8B92C480168C1
:1005A0001D48006800F09AFE2A4908602A48016840
:1005B0001B48006800F0E8FE2849086028480168E8
:1005C0001948006800F036FF26490860264801688F
:1005D0001748006800F084FF2449086041F6F420C1
:1005E00001F0F2FF214803681E4802681B480168B9
:1005F0001848006801F082FD002070BD3C81214256
:1006000014040140E000002069000020F8000020F0
:100610006A000020940100200C0000201C00002033
:1006200010000020200000201400002024000020E2
:100630001800002028000020E8000020E40000202E
:100640000000C842600000209C0000206B000020D9
:1006500050000020400000205400002044000020F2
:1006600058000020480000205C0000204C000020C2
:1006700010B5082000F052F8E8B1082000F048F862
:1006800028200D4908700020C870084601F01EF9A6
:1006900000231A461946184601F030FD0748007835
:1006A00008B101F08DFC2820034908700120C870B2
:1006B000084601F00BF910BD900100200000002059
:1006C00010B5102000F02AF8E8B1102000F020F852
:1006D00028200D4908700020C870084601F0F6F87F
:1006E00000231A461946184601F008FD07484078CD
:1006F00008B101F03BFC2820034908700120C870B4
:10070000084601F0E3F810BD900100200000002031
:1007100001490860704700001404014001460020B0
:100720000022074B1B6803EA0102054B14331B68C8
:100730000B4013B10AB1012000E000207047000017
:1007400000040140002123498279002A3AD00A4658
:10075000126803689A430B461A600A1D1268036800
:100760009A430B1D1A60027911440A6803681A4300
:100770000A60184A0832126803689A43154B083316
:100780001A601A1D126803689A43124B0C331A60E0
:100790004279102A0ED11A1F126803681A430D4BB2
:1007A00008331A601A1D126803681A43094B0C3388
:1007B0001A600DE00749427911440A6803681A4338
:1007C0000A6005E0027911440A6803689A430A60E6
:1007D00070470000000401401FB51020ADF80C0068
:1007E00048208DF80F0003208DF80E0003A92F4834
:1007F00000F034FB0820ADF80C0048208DF80F0005
:1008000003208DF80E0003A9284800F027FB0121E2
:10081000042001F0B7FA4FF4A06001F08FF80A202D
:100820008DF8080002208DF8090000208DF80A00DC
:1008300001208DF80B0002A801F048F84FF4A060E9
:1008400001F07CF809208DF8080002208DF80900DD
:1008500000208DF80A0001208DF80B0002A801F09D
:1008600035F80421002000F0D9FA10200090002073
:100870008DF804000C208DF8050001208DF806008D
:100880006846FFF75FFF0321002000F0C7FA082049
:10089000009000208DF804000C208DF80500012048
:1008A0008DF806006846FFF74DFF1FBD00080140A8
:1008B00010B51248806940F008001049886110485E
:1008C000006820F070400E4908600846006840F05B
:1008D000004008600A480830006840F400400849B9
:1008E0000831086001220F21104600F0CDF90223E3
:1008F00028220121184600F0DDFE10BD0010024044
:10090000040C014010B53748406840F48070354908
:1009100048603548C06940F001003349C861084665
:10092000806940F0040088610846806940F0080052
:1009300088612E48006820F070402C490860084605
:10094000006840F0804008602948006820F470404A
:10095000274908600846006840F4804008604FF06E
:100960008040808940F001004FF080418881084636
:10097000808940F04000888101231C220321184611
:1009800000F098FE00204FF0804108854FF6FF7080
:1009900088850846008820F4407008800846008852
:1009A00020F0600008800846008B40F001000883BA
:1009B0000846008B40F4807008830846008C20F0C5
:1009C000020008840846008C20F0200008840846B5
:1009D000008940F0030008810846008840F00100CB
:1009E000088010BD000001400010024004080140D2
:1009F000000C014010B53348C06940F00200314995
:100A0000C8610846806940F0080088612E48006887
:100A100020F07F402C4908600846006840F088407C
:100A200008602A48008840F00100284908800846EC
:100A3000008840F04000088001231D220321184651
:100A400000F038FE002021491C3108804FF6FF706D
:100A5000091D08801D480C38008820F440701B498F
:100A60000C3908800846008820F06000088017488C
:100A70000C30008840F0010014490C310880084611
:100A8000008840F48070088010481430008820F0FE
:100A900002000E49143108800846008820F020002A
:100AA00008800A48001F008840F003000749091F1A
:100AB000088006480C38008840F0010003490C39D2
:100AC000088010BD00100240000801400C040040E6
:100AD00010B53348C06940F004003149C861084688
:100AE000806940F0080088612E48006820F07F404F
:100AF0002C4908600846006840F0884008602A4891
:100B0000008840F00100284908800846008840F02D
:100B10004000088001231E220321184600F0CAFD70
:100B2000002021491C3108804FF6FF70091D088004
:100B30001D480C38008820F440701B490C3908808F
:100B40000846008820F06000088017480C300088B4
:100B500040F0010014490C3108800846008840F438
:100B60008070088010481430008820F002000E4980
:100B7000143108800846008820F0200008800A48C8
:100B8000001F008840F003000749091F088006483D
:100B90000C38008840F0010003490C39088010BD72
:100BA00000100240000C01400C08004010B5334812
:100BB000C06940F008003149C8610846806940F0CA
:100BC000040088612E48006820F0FF002C4908606E
:100BD0000846006840F044000860C804808940F07E
:100BE0000100C90488810846808940F0400088815E
:100BF000012332220321184600F05CFD0020214928
:100C000008804FF6FF70091D08801E4828380088AC
:100C100020F440701B49283908800846008820F0DD
:100C20006000088017481038008840F0010015491E
:100C3000103908800846008840F480700880114808
:100C40000838008820F002000E490839088008465C
:100C5000008820F0200008800A482038008840F0F2
:100C6000030008492039088006482838008840F0E9
:100C7000010004492839088010BD0000001002401E
:100C800000080140280C004070B504460B46CE1702
:100C900001EB9676C6F38700CE1701EB9676B61079
:100CA000A1EB8606B606350E1C4B9B6943F001038B
:100CB0001A4EB3614FEAB63353F820300F26AE40D8
:100CC000B343174E46F82030334653F8203004FA29
:100CD00005F61E43124B43F82060124B1B68012699
:100CE0008E4033430F4E336002F0010343B10D4B8E
:100CF0000C331B6801268E4033430A4E0C3633609A
:100D000002F0020343B1074B08331E6801238B40F6
:100D10001E43044B08331E6070BD000000100240EB
:100D2000080001400004014010B50A222F49304854
:100D300001F07CF82D4800884FF6FF7188422DD1D4
:100D40002A484088884229D128488088884225D16D
:100D50002648C088884221D12448008988421DD174
:100D600022484089884219D120488089884215D17B
:100D70001E202049086040F6B8301F4908601F480F
:100D80001F49086000201F4908601F481F4908606C
:100D90001F48204908602049086025E01348008862
:100DA0001449086011484088134908600F49888831
:100DB00003F012F8124908600C49C88803F00CF8D7
:100DC000104908600949088903F006F80F490860CE
:100DD0000649488903F000F80E49086003498889EC
:100DE00002F0FAFF0C49086010BD000098010020D5
:100DF00000E000089C000020A00000200000A041AE
:100E0000880000208C000020000048439000002053
:100E100000004041940000209800002030B50022DE
:100E20008B071C0F0F2303FA04F20B4B8C1053F8A3
:100E300024309343084C8D1044F8253023468C1001
:100E400053F824308C07240F00FA04F42343024C97
:100E50008D1044F8253030BD080001402DE9F041E7
:100E6000024600250026002000230024002791F8D8
:100E700003C00CF00F0591F803C00CF0100CBCF18E
:100E8000000F03D091F802C04CEA050591F800C0AC
:100E9000BCF1000F31D0146800202BE04FF0010CA2
:100EA0000CFA00F3B1F800C00CEA03069E4220D110
:100EB00083004FF00F0C0CFA03F7BC4305FA03FC58
:100EC0004CEA040491F803C0BCF1280F06D14FF09E
:100ED000010C0CFA00FCC2F814C00AE091F803C03F
:100EE000BCF1480F05D14FF0010C0CFA00FCC2F820
:100EF00010C0401C0828D1D31460B1F800C0BCF168
:100F0000FF0F34DD546800202EE000F1080C4FF094
:100F1000010808FA0CF3B1F800C00CEA03069E427F
:100F200021D183004FF00F0C0CFA03F7BC4305FAF4
:100F300003FC4CEA040491F803C0BCF1280F05D16E
:100F400000F1080C08FA0CF8C2F8148091F803C0FC
:100F5000BCF1480F07D100F1080C4FF0010808FA66
:100F60000CF8C2F81080401C0828CED35460BDE8AD
:100F7000F081000001460F48006820F01F000D4A74
:100F8000106010460068084310600A482C3800685A
:100F900040F48000074A2C3A106000BF05483438FE
:100FA000006800F002000028F8D0024818300068FD
:100FB00080B27047342401402DE9F04F87B00520FE
:100FC000FFF7D8FF019002F05EFC80464FF06632DA
:100FD000104B02F06BFC00220F4BCDE9020102F036
:100FE00065FC00220D4BCDE9040102F05FFC0646D2
:100FF00000220B4B02F0C0FA04460022094B02F01B
:10100000BBFA824602F010FC0690069807B0BDE8D5
:10101000F08F000066660A4000002640000059403C
:101020000000F03F0000B04000BFFEE710B5002018
:101030000E4908600E48006820F470400C490860B2
:101040000846006840F44050086000200949C1F893
:10105000AC01012001F05AFB01200449086001F0B5
:1010600055FB00200349C1F8A80110BDA881214209
:10107000040C0140008021420848806940F00800CB
:10108000064988610648006820F47F4004490860EA
:101090000846006840F44C50086070470010024059
:1010A000040C014010B500200E4908600E4800688D
:1010B00020F470400C4908600846006840F4405035
:1010C000086001200949C1F8AC0101F01FFB0120B3
:1010D0000449086001F01AFB00200449C1F8A80186
:1010E00010BD0000A8812142040C01400080214273
:1010F00070B5054600241748006820F47040154973
:1011000008600846006840F400400860002616E0C9
:10111000002011490860022001F0F8FA01200F496F
:10112000C1F8A8016006040E0B487C38006808B1BD
:10113000601CC4B2022001F0E9FA701CC6B2082E8D
:10114000E6DB15B1FFF772FF01E0FFF7ABFF2046CA
:1011500070BD0000040C0140A881214200802142A2
:1011600070B504461448006820F4704012490860C5
:101170000846006840F44050086000200F490860AD
:10118000002516E0E0090D49091D08606006040EFF
:10119000012001F0BBFA01200949C1F8A80101F0C2
:1011A000B5FA002005490860012001F0AFFA681C7B
:1011B000C5B2082DE6DB70BD040C0140A8812142B8
:1011C0000080214210B51648006820F47040144990
:1011D00008600846006840F440500860012011494A
:1011E00008601148D0F82C0108B9002010BD01207A
:1011F0000C49091F086001F089FA00200A49C1F86A
:10120000AC0108488038006808B10020EEE70120F2
:1012100001F07CFA00200349091F08600120E5E77E
:10122000040C0140AC8121420080214210B50E48DF
:10123000006820F470400C4908600846006840F4DB
:10124000405008600020094908600949C1F8AC0114
:10125000012001F05BFA0120044908600449C1F84B
:10126000AC0101F053FA10BD040C0140A8812142E9
:101270000080214210B500241548006820F4704019
:10128000134908600846006840F4004008600120E7
:101290001049086001F03AFA01200F49C1F8A8018D
:1012A00001F034FA0AE0601CC4B2322C03DDFFF70F
:1012B000BDFF002010BD012001F028FA054880384C
:1012C00000680028EFD10349091F08600120F1E7F9
:1012D000040C0140AC812142008021422DE9F05FE5
:1012E00004460D46601B224908600846006802F06B
:1012F0005BFD83461F480168584602F081FD804629
:101300001B4909681C4A1268881A02F04DFD834681
:101310001A480168584602F073FD8146414602F0C2
:10132000C3FB07461648006802F03EFD8246394678
:1013300002F0BAFB064602F01BFD114908600846A0
:101340000068B0F5E15F02DD4FF4E15008600C4841
:10135000006810F5E15F02DA0A48094908600448AC
:1013600000680549086006480068BDE8F09F000075
:10137000FC000020980000200401002094000020C0
:1013800000010020E0E3FFFF2DE9F05F04460D4679
:10139000601B224908600846006802F005FD83468C
:1013A0001F480168584602F02BFD80461B4909681A
:1013B0001C4A1268881A02F0F7FC83461A48016832
:1013C000584602F01DFD8146414602F06DFB07467E
:1013D0001648006802F0E8FC8246394602F064FBD9
:1013E000064602F0C5FC1149086008460068B0F5E1
:1013F000E15F02DD4FF4E15008600C48006810F531
:10140000E15F02DA0A4809490860044800680549B2
:10141000086006480068BDE8F09F00000801002051
:101420009800002010010020940000200C010020F2
:10143000E0E3FFFF2DE9F05F04460D46601B224903
:1014400008600846006802F0AFFC83461F48016848
:10145000584602F0D5FC80461B4909681C4A1268B0
:10146000881A02F0A1FC83461A480168584602F027
:10147000C7FC8146414602F017FB07461648006844
:1014800002F092FC8246394602F00EFB064602F05C
:101490006FFC1149086008460068B0F5E15F02DDA5
:1014A0004FF4E15008600C48006810F5E15F02DA83
:1014B0000A48094908600448006805490860064868
:1014C0000068BDE8F09F0000140100209800002093
:1014D0001C0100209400002018010020E0E3FFFF21
:1014E0002DE9F05F04460D46601B2249086008465E
:1014F000006802F059FC83461F480168584602F014
:101500007FFC80461B4909681C4A1268881A02F051
:101510004BFC83461A480168584602F071FC81462C
:10152000414602F0C1FA07461648006802F03CFC4A
:101530008246394602F0B8FA064602F019FC114913
:10154000086008460068B0F5E15F02DD4FF4E15045
:1015500008600C48006810F5E15F02DA0A480949A2
:101560000860044800680549086006480068BDE84E
:10157000F09F00002001002098000020280100209A
:101580009400002024010020E0E3FFFF014649060B
:10159000084A926942F00102064B9A61064A526873
:1015A00022F0E062044B5A601A4652680A435A60BD
:1015B0007047000000100240000001400C488069A4
:1015C00040F008000A4988610A48006820F4700069
:1015D000084908600846006840F440100860054863
:1015E0000830006840F40050024908310860704734
:1015F00000100240040C014018B90021094A116092
:101600000FE009490968491C074A1160814208D165
:1016100004490968C943054AC2F8B4110021024AC5
:1016200011607047B4812142AC000020008021424B
:1016300070B504460D46634222466142204600F0E2
:10164000E3FB284601F080F870BD000000B50020E3
:1016500015490861C8601420486100208861C8618C
:101660000846006840F001000860084640680F49DD
:1016700008400D494860084600680D4908400A497D
:1016800008600846006820F480200860084640682A
:1016900020F4FE0048600020886000214FF00060C8
:1016A00000F058F800BD0000001002400000FFF8F4
:1016B000FFFFF6FE2DE9F0410746884614461D4619
:1016C000284600F033F8C5F1040007FA00F60F20B1
:1016D000284100EA0800064306F00F06E21704EB73
:1016E000D2625211920002F1E022D2F8002121468A
:1016F000E31704EBD3635B11A4EB431C012303FA50
:101700000CF31A432046E31704EBD3635B119B00F1
:1017100003F1E023C3F800210348005D40EA06100E
:1017200001490855BDE8F08100E400E001460723C7
:1017300023EA01021202054B18684FF6FF03184016
:10174000034B18431043014B186070470CED00E049
:101750000000FA05024A0A400243024B1A60704731
:1017600080FFFF1F08ED00E000BFFEE71048806922
:1017700040F008000E4988610846806940F010007A
:1017800088610C48006820F0FF000A49086008469C
:10179000006840F0220008600748006820F47F00DD
:1017A000054908600846006840F408100860704762
:1017B00000100240000C01400010014000B503463B
:1017C0000A46FFF7D3FF3D48806940F400503B498B
:1017D00088610846806940F0100088613848406898
:1017E00020F0FF00364948600846406840F0BB00E2
:1017F00048600846006820F07F400860084600689E
:1018000040F03B4008602F480380001F02802D48B5
:101810001438008840F060002A49143908800846CE
:10182000008840F4C0400880081D008840F0600037
:10183000091D08800846008840F4C0400880081F41
:10184000008840F00800091F08800846008840F41E
:1018500000600880081D008840F00800091D08800D
:101860000846008840F400600880081D008840F0A9
:101870000100091D08800846008840F0100008801B
:101880000846008840F4807008800846008840F4CC
:10189000805008800B481830008840F40040094907
:1018A000183108804FF4004006492C39088008465A
:1018B000008840F00100088000BD000000100240D8
:1018C000001001402C3401407047000070B5002129
:1018D00000230F22C47804B3154C246804F4E06498
:1018E000C4F5E064210AC1F10403CA40447804FA53
:1018F00003F184781440214309010E4C0678A15568
:10190000047804F01F050124AC4005786D11AD008A
:1019100005F1E025C5F8004109E0047804F01F0551
:101920000124AC40044D0678761145F8264070BD80
:101930000CED00E000E400E080E100E0024901433A
:10194000024A1160704700000000FA050CED00E04B
:1019500030B500240CE0002506E00020074901EB2B
:10196000C5010855681CC5B2802DF6DB601CC4B2E9
:10197000082CF0DB00F0F2F830BD0000C0010020C0
:10198000F0B5144600267F2801DC3F2900DDF0BDBC
:101990000B46CF1701EB5777FF10C7F10707FAB2D5
:1019A000CF1701EB5777FF10A1EBC707FDB2C5F1C9
:1019B00007070123BB40DEB24CB10A4B03EBC00367
:1019C0009B5C3343074F07EBC007BB5408E0054B54
:1019D00003EBC0039B5CB343024F07EBC007BB5450
:1019E00000BFD4E7C001002010B55548806940F021
:1019F0001000534988610846806940F00100886101
:101A000050484068C0F313004E494860084640689B
:101A10004D4908434B4948600846006820F00F00D4
:101A200008600846006840F0020008604748006807
:101A300040F48070454908604148006A20F0010088
:101A40003F4908624248008820F001004049088070
:101A50003E48006820F480703C49086000203D4901
:101A60000860642000F034FE01203B49C1F8BC014D
:101A70000021AE2000F058F90021D52000F054F9E3
:101A80000021502000F050F90021A82000F04CF96E
:101A900000213F2000F048F90021D32000F044F954
:101AA0000021084600F040F90021402000F03CF9F8
:101AB00000218D2000F038F90021142000F034F9C5
:101AC0000021202000F030F90021022000F02CF944
:101AD0000021A12000F028F90021C02000F024F905
:101AE0000021DA2000F020F90021122000F01CF97A
:101AF0000021812000F018F90021EF2000F014F9F6
:101B00000021D92000F010F90021F12000F00CF99B
:101B10000021DB2000F008F90021302000F004F95A
:101B20000021A42000F000F90021A62000F0FCF81C
:101B30000021AF2000F0F8F8FFF70AFF10BD000009
:101B40000010024000100140000020220070004000
:101B5000306C0040BC0122420000224230B500241B
:101B60001CE004F1B001C8B2002100F0DDF8002152
:101B7000084600F0D9F80021102000F0D5F8002523
:101B800008E0084901EBC501085D012100F0CCF82F
:101B9000681CC5B2802DF4DB601CC4B2082CE0DBED
:101BA00030BD0000C00100202DE9F04F80460C46FA
:101BB00015461E46A346A5F12000C5B200273EE00B
:101BC0000C2E07D105EB45001F4901EB800010F8F2
:101BD000079004E01D4800EB051010F807904FF047
:101BE000000A26E009F0800028B121464046099A03
:101BF000FFF7C6FE09E0099808B9012000E00020BF
:101C0000024621464046FFF7BBFE4FEA49604FEAD5
:101C10001069601CC4B2A4EB0B00B04205D15C4655
:101C200008F1010000F0FF0806E00AF1010000F0F1
:101C3000FF0ABAF1080FD5DB00BF781CC7B2B74264
:101C4000BEDBBDE8F08F000082400008F6440008CB
:101C50002DE9FF4F81B0074691461E460E9D4FF07D
:101C6000000A002439E0301B401EC1B20A2001F0F6
:101C70007FF9B9FBF0F00A21B0FBF1F201FB120889
:101C8000BAF1000F16D1701EA04213DDB8F1000F9B
:101C90000ED10120AB4605EBDB71491001FB04714D
:101CA0000090C8B22B4620220299FFF77DFF12E078
:101CB0004FF0010A0120AB4605EBDB71491001FB37
:101CC00004710090C8B208F13001CAB22B460299E3
:101CD000FFF76AFF00BF601CC4B2B442C3DB05B0AB
:101CE000BDE8F08F78B505460E46144618E07A2D0B
:101CF00003DD002506F11000C6B23A2E04DD0020F7
:101D000005460646FFF724FE0120009022780C23AA
:101D100031462846FFF748FF05F10800C5B2641CAC
:101D200020780028E3D178BD10B50A461AB1012306
:101D3000124C236002E00023104C2360002116E0C7
:101D400000230E4C3434236000F080031BB10123C8
:101D5000241D236003E00023084C38342360012352
:101D6000064C343423604306180E4B1CD9B20829A4
:101D7000E6DB0123014C236010BD000080012242FC
:101D80007047000029B1064A92690243044B9A61E8
:101D900004E0034A92698243014B9A617047000054
:101DA000001002400146022906D003290DD0042963
:101DB00012D005291ED116E04FF08042928C10B24D
:101DC00000224FF080439A8416E00C4A128810B229
:101DD00000220A4B1A800FE0094A128810B2002232
:101DE000074B1A8008E0074A128810B20022054B00
:101DF0001A8001E0002000BF00BF704724040040AB
:101E000024080040240C004010B5044C2060044C11
:101E10002160044C2260044C236010BD500000205F
:101E200054000020580000205C00002030B503461C
:101E30000C461546002207E0184600F008F824F882
:101E400012009B1C501C82B2AA42F5DB30BD014639
:101E5000088870477047000000B58DB00121C802A6
:101E6000FFF790FF01210D20FFF78CFF4FF470600A
:101E7000ADF8300018208DF8330003208DF83200C3
:101E80000CA93748FEF7EAFF4FF48050ADF8300058
:101E900018208DF8330003208DF832000CA931484A
:101EA000FEF7DCFFC720ADF8280041F61F40ADF873
:101EB00024000020ADF82A00ADF8260009A92A4820
:101EC00000F00AFB7020ADF814000120ADF81600F8
:101ED000B920ADF81A000020ADF81C00ADF81E00C6
:101EE0004FF48070ADF8200005A91F4800F042FAB9
:101EF00008211D4800F08AFAC320ADF81A0005A990
:101F0000194800F08DFA0821174800F0D9FA4FF46B
:101F10000060ADF804004010ADF806008010ADF888
:101F200008000020ADF80A004FF48050ADF80C0016
:101F30004000ADF80E004000ADF8100001A90A48BD
:101F400000F0ECF90121084800F004FA01210648EC
:101F500000F0D8F90121044800F0F0F90DB000BDFF
:101F600000080140000C0140002C014010B5002089
:101F700000F0F0FEBC2417E0A1B2104800F0A9FA6E
:101F8000322000F067FB00210C4800F0A2FA4FF469
:101F90007A7000F05FFBBC21084800F09AFA4FF419
:101FA000FA7000F057FB641EB72CE5DA00210348F5
:101FB00000F08FFA012000F0CDFE10BD002C014092
:101FC00010B5002000F0C6FEBC241BE0A1B21048F2
:101FD00000F07FFA322000F03DFBC8210C4800F0F1
:101FE00078FA4FF47A7000F035FBBC21084800F015
:101FF00070FA4FF4FA7000F02DFBC821044800F08D
:1020000068FA641CC02CE1DD012000F0A3FE10BDC5
:10201000002C014010B500F001F810BD0CB50020F7
:10202000019000903348006840F4803031490860E6
:1020300000BF3048006800F4003000900198401C58
:102040000190009818B90198B0F5A06FF1D1294816
:10205000006800F4003010B10120009001E0002081
:1020600000900098012843D12348006840F01000F8
:10207000214908600846006820F00300086008460F
:10208000006840F0020008601A484068194948603A
:102090000846406848600846406840F480604860F0
:1020A0000846406820F47C1048600846406840F4C8
:1020B000E81048600846006840F08070086000BF83
:1020C0000C48006800F000700028F9D0094840680A
:1020D00020F00300074948600846406840F00200CD
:1020E000486000BF0348406800F00C000828F9D1A0
:1020F0000CBD0000001002400020024070B50446F4
:102100000020002C06DD2518264E35800025264EA1
:10211000356007E004F5E1552D1A224E3580012582
:10212000214E3560002909DDC1F5E1552D1A1D4EFE
:10213000361D358001251D4E356007E04D420544B2
:10214000184E361D35800025184E3560002A0ADDF0
:10215000C2F5E1552D1A134E083635800125124E71
:10216000361D356008E0554205440E4E0836358070
:1021700000250D4E361D3560002B08DD1D18094E5B
:102180000C3635800025094E361D356009E003F513
:10219000E1552D1A034E0C3635800125034E361DB0
:1021A000356070BD3434014090012242808121426B
:1021B00030B504460025FFF749FA1F48006840F48F
:1021C00080301D49086000BF1B480068400C002893
:1021D000FAD04FF4806018494860A01EC4B2084687
:1021E000406840EA844048600846406840F48030D7
:1021F00048601248006840F03200104908600E48FC
:10220000006840F080700C49086000BF0A48006810
:10221000400E0028FAD00848406840F00200064905
:10222000486005E004484068C0F3870505F00305F1
:10223000022DF7D130BD0000001002400020024006
:102240007047000010B51348006840F001001149C4
:10225000086008464068104908400E494860084632
:1022600000680E4908400B4908600846006820F4E1
:10227000802008600846406820F4FE0048604FF463
:102280001F008860FFF7C6FE4FF000600449086039
:1022900010BD0000001002400000FFF8FFFFF6FE36
:1022A00008ED00E04FF08040008A4FF08040008A47
:1022B00020F001004FF080410882704704480088F8
:1022C0000348008820F001000149088070470000A1
:1022D00010040040044800880348008820F00100F2
:1022E0000149088070470000100800400448008839
:1022F0000348008820F00100014908807047000071
:10230000100C004021B1028842F08002028004E0FB
:1023100002884FF67F731A40028070470A884B8804
:102320001A438B881A43CB881A430B891A434B896B
:102330001A438B891A43A0F84420704721B10288C0
:1023400042F00102028004E002884FF6FE731A4058
:102350000280704731B1B0F8442042F40042A0F846
:10236000442005E0B0F84420C2F30E02A0F8442057
:102370007047000070B5002400220023058C4FF642
:10238000FE7635400584028C8388048B4FF68F756A
:102390002C40B51E2C400D882C43751E2A400D89FB
:1023A0002A434D882A43144DA8420BD0134DA8420E
:1023B00008D0134DA84205D0124DA84202D0124DAC
:1023C000A84213D14FF6F7752A404D892A434FF69C
:1023D000FB752A408D882A434FF6FF652B404FF648
:1023E000FF552B408D892B43CD892B43838004835C
:1023F000CD888586028470BD002C014000340140E8
:102400000040014000440140004801400A460021CC
:10241000018B4FF6F7731940114301837047000099
:1024200070B5002400220023058C4FF6FF6635406E
:102430000584028C8388848B4FF68F752C404FF671
:10244000FC752C400D882C434FF6FF552A400D8912
:102450004FF6FF7606EA05252A434D8806EA05254C
:102460002A43154DA84202D0144DA8421DD14FF267
:10247000FF752A404D894FF6FF7606EA05252A4367
:102480004FF6FF352A408D8806EA05252A434EF689
:10249000FF752B404DF6FF752B408D8906EA05151B
:1024A0002B43CD8906EA05152B4383808483CD8891
:1024B0008587028470BD0000002C0140003401407B
:1024C0000A460021818B4FF6F7731940114381832F
:1024D0007047818770470000002202881D4B984298
:1024E0000ED01D4B98420BD0B0F1804F08D01B4B43
:1024F000984205D01A4B984202D01A4B984204D108
:102500004FF68F731A404B881A43174B984207D0E7
:10251000164B984204D04FF6FF431A40CB881A431B
:1025200002808B8883850B8803850A4B98420BD0E9
:10253000094B984208D00E4B984205D00D4B98425B
:1025400002D00D4B984201D10B7A0386012383827E
:1025500070470000002C014000340140000400409E
:1025600000080040000C0040001000400014004033
:10257000004001400044014000480140014640F253
:102580005642914215DA012000220B4B1A801B1D86
:102590001A801B1D1A801B1D1A80084B1A60084BDD
:1025A000C3F88021054B1B1D1A60054BC3F884211D
:1025B00000E00020704700003434014090012242C6
:1025C0000080214200BFFEE71C4909684242914257
:1025D00002DA4142194A116018490968814201DD55
:1025E00016490860164909684242914202DA41429E
:1025F000134A116012490968814201DD10490860DF
:10260000104909684242914202DA41420D4A116082
:102610000C490968814201DD0A4908600A490968D4
:102620004242914202DA4142074A11600649096872
:10263000814201DD0449086070470000400000202D
:1026400044000020480000204C000020014600BF4C
:102650007047000001460D4A12884A434FF0E023BC
:102660005A6100229A6101221A6100BF4FF0E022F4
:10267000106900F001021AB100F48032002AF5D08E
:1026800000224FF0E0231A619A617047AA000020EF
:102690004FF0E021096921F004014FF0E0221161BF
:1026A000C21700EB5272C2F3C702074B1A701946E9
:1026B000097801EB4102C2EBC1114FF6FF7202EA49
:1026C000C101024A11807047A8000020AA00002022
:1026D00001460D4A12884A434FF0E0235A61002216
:1026E0009A6101221A6100BF4FF0E022106900F0E8
:1026F00001021AB100F48032002AF5D000224FF016
:10270000E0231A619A617047AA00002001460D4A31
:1027100012784A434FF0E0235A6100229A61012265
:102720001A6100BF4FF0E022106900F001021AB1F7
:1027300000F48032002AF5D000224FF0E0231A6125
:102740009A617047A800002010B50446012008498E
:10275000087000200749086001E000F015FC0548FA
:102760000068A042F9DB00200149087010BD00009C
:1027700069000020F80000202DE9F04106460F46D0
:1027800014461D46FEF71EFD10B90120BDE8F0817C
:102790007106080EFEF7E4FCFEF76CFD18B9FEF7B3
:1027A00045FD0120F2E73846FEF7DAFCFEF762FD50
:1027B000FEF708FD012101EB4601C8B2FEF7D0FC8F
:1027C000FEF758FD0DE0012C04D10020FEF790FC2F
:1027D000287003E00120FEF78BFC28706D1C601E42
:1027E000C4B2002CEFD1FEF721FD0020CEE72DE989
:1027F000F04105460E4617469846FEF7E3FC10B931
:102800000120BDE8F0816906080EFEF7A9FCFEF77D
:1028100031FD18B9FEF70AFD0120F2E73046FEF758
:102820009FFCFEF727FD00240BE018F80400FEF7DC
:1028300097FCFEF71FFD18B9FEF7F8FC0020E0E753
:10284000641CBC42F1DBFEF7F1FC0020D9E700007C
:102850000920FFF7ADFC4820FFF71AFFFFF7FCFA4D
:102860000220FEF793FE0120FEF790FEFEF7A6FE83
:1028700000201C490870FFF7B7F8FEF743F8FEF791
:10288000B9F8FEF725F9FEF791F9FDF717FDFEF708
:10289000F3FB002141F61F40FEF790FF124800684D
:1028A00008B9FEF741FAFEF703F8FDF795FFFDF7CB
:1028B000B5FDFDF79BFD01200C4908704870C8204C
:1028C000FFF742FF0AA228210A20FFF70BFAFFF7C1
:1028D00045F9C820FFF738FF03E007490320FEF75A
:1028E000A7FEFAE76B00002038812142000000209B
:1028F0005374617274000000801A060070B50446BB
:10290000002624F00104184890F8240008B10020A3
:1029100070BD1548807A10B94FF0FF30F8E71248C3
:10292000057C807A2040104908740846007CA0424B
:1029300002D04FF0FF3600E0002614B90A48007DAF
:1029400018B1012000F0D0FD02E0002000F0CCFD25
:102950003CB100F07BF820B1034805744FF0FF3024
:10296000D6E73046D4E70000B000002038B5044672
:10297000282C02DD4FF0FF3038BDDCB9002000F01C
:1029800031FA00208DF8000007208DF801002E4A52
:102990001268917C2C4A526810786B460222FFF72D
:1029A00026FF10B14FF0FF30E6E700212648017501
:1029B0000020E1E7012000F015FA20208DF800004A
:1029C000012C06D100208DF80100052000F040FA0E
:1029D00017E0052C06DC01208DF80100052000F031
:1029E00037FA0EE0142C06DC02208DF801000A20D4
:1029F00000F02EFA05E003208DF80100142000F00D
:102A000027FA9DF80100072101EB8010C0B28DF874
:102A100001000D4A1268917C0B4A526810786B468F
:102A20000222FFF7E4FE10B14FF0FF30A4E70821C7
:102A30000548817200210173012101750020FFF713
:102A40005DFF002098E70000B000002008B56D4849
:102A5000807A10B94FF0FF3008BD00200090694A1D
:102A60001268D17B674A526810786B460122FFF7E3
:102A7000BEFE10B14FF0FF30EEE7624A12685179A6
:102A8000604A526810786B460122FFF7B0FE10B121
:102A90004FF0FF30E0E75B4A12681179594A5268FB
:102AA00010786B460122FFF7A2FE10B14FF0FF3005
:102AB000D2E7544890F82400002850D00C20009011
:102AC000504A126811794F4A526810786B460122B9
:102AD000FFF78DFE10B14FF0FF30BDE7C020009032
:102AE0004848807A00F0010020B19DF8000040F0D5
:102AF00020000090434A12681179424A52681078C7
:102B00006B460122FFF773FE10B14FF0FF30A3E7D1
:102B10003C48407C10B10220009001E00020009071
:102B2000384A1268D17B374A526810786B460122C6
:102B3000FFF75DFE10B14FF0FF308DE700200090F1
:102B4000304A126851792F4A526810786B46012238
:102B5000FFF74DFE002852D04FF0FF307CE70420F5
:102B60000090284A12681179264A526810786B46FC
:102B70000122FFF73CFE10B14FF0FF306CE7214817
:102B8000807C20B91F48807A00F0010010B94020F5
:102B9000009001E0602000901A4A12681179194AE9
:102BA000526810786B460122FFF721FE10B14FF0FA
:102BB000FF3051E71348407C10B10120009001E044
:102BC000002000900F4A1268D17B0E4A526810789C
:102BD0006B460122FFF70BFE10B14FF0FF303BE7D1
:102BE000084A12685179074A52681078054B103329
:102BF0000122FFF7FCFD10B14FF0FF302CE7002061
:102C00002AE70000B000002038B504465048807C18
:102C1000A04201D1002038BD002C46D04C4A126899
:102C200011794B4A526810786B460122FFF7A4FDD8
:102C300010B14FF0FF30EEE79DF8000020F02000CB
:102C40000090434A12681179414A526810786B46E5
:102C50000122FFF7CCFD10B14FF0FF30DBE703207E
:102C6000FFF736FD02200090394890F8220020B18D
:102C70009DF8000040F080000090354890F8230057
:102C800020B19DF8000040F030000090304A1268FA
:102C9000117D2F4A526810786B460122FFF7A7FD7D
:102CA000002851D04FF0FF30B5E7294A126811795A
:102CB000274A526810786B460122FFF75DFD10B17C
:102CC0004FF0FF30A7E72248807A00F0010028B1DA
:102CD0009DF8000040F02000009004E09DF8000006
:102CE00020F0200000901A4A12681179184A5268A0
:102CF00010786B460122FFF77AFD10B14FF0FF30DC
:102D000089E70320FFF7E4FC114890F8220010B196
:102D10008020009001E0002000900D4890F82300F2
:102D200020B19DF8000040F030000090084A126881
:102D3000117D074A526810786B460122FFF757FD54
:102D400010B14FF0FF3066E701488474002062E75D
:102D5000B000002038B50446214890F82400A04275
:102D600001D1002038BD24B31D4890F8250010B9CA
:102D70004FF0FF30F6E7002000F0B6FB0020FFF731
:102D800043FF1749C88C00F0A5F8002000901449B3
:102D9000496808786B4601222321FFF728FD0121AD
:102DA0000F4880F82410012000F09EFBFFF74EFE34
:102DB00013E0002000F098FB0948007C00900849CF
:102DC000496808786B4601222321FFF710FD002196
:102DD000034880F82410FFF739FE0020C2E7000006
:102DE000B000002038B50446184890F82300A042EF
:102DF00001D1002038BD14B13020009001E0002046
:102E000000901248807C20B19DF8000040F0020044
:102E100000900E4890F8220020B19DF8000040F08C
:102E200080000090094A1268117D084A52681078A3
:102E30006B460122FFF7DBFC10B14FF0FF30D9E702
:102E4000024880F823400020D4E70000B0000020B2
:102E500038B504461E48807A10B94FF0FF3038BDAF
:102E6000BC2C02DB0120009015E0622C02DB02206A
:102E7000009010E02A2C02DB032000900BE0142CC1
:102E800002DB0420009006E00A2C02DB0520009003
:102E900001E0062000900E48C07A9DF8001088429C
:102EA00001D10020DBE70A4A12689178084A52688B
:102EB00010786B460122FFF79AFC10B14FF0FF30FB
:102EC000CDE79DF800100248C1720020C7E700005E
:102ED000B000002038B504462448807A10B94FF07D
:102EE000FF3038BD214890F8240010B14FF0FF307A
:102EF000F7E71E48007D50B134B1282C04DCE0B265
:102F0000FFF734FD0020ECE70020FFF72FFD042C35
:102F100001DA042404E0B4F57A7F01DD4FF47A7419
:102F20004FF47A7090FBF4F0401EC0B200900F4A4C
:102F3000126851780D4A526810786B460122FFF7EB
:102F400056FC10B14FF0FF30CBE79DF80000401C5D
:102F50004FF47A7191FBF0F081B20448C1810146CF
:102F6000C9894810FFF774FF0020BAE7B0000020BD
:102F700010B50246012000E050430B1EA1F10104F0
:102F8000E1B2F9D110BD000038B5FD480078002845
:102F900079D1FC48006800280FDAFBA20A21002042
:102FA000FEF7A0FE0C2005230090F6480068424280
:102FB0000A210F20FEF74CFE0DE0F4A20A210020AA
:102FC000FEF790FE0C2005230090EE480A210268CF
:102FD0000F20FEF73DFEEE48006800280FDAEAA257
:102FE0000A215020FEF77EFE0C2004230090E848C2
:102FF000006842420A215F20FEF72AFE0DE0E3A2AC
:103000000A215020FEF76EFE0C2004230090E048B9
:103010000A2102685F20FEF71BFEDE4800680028D8
:103020000FDAD9A214210020FEF75CFE0C20052344
:103030000090D8480068424214210F20FEF708FE95
:103040000DE0D2A214210020FEF74CFE0C20052337
:103050000090D048142102680F20FEF7F9FDCE48F9
:103060000068002810DAC8A214215020FEF73AFEAA
:103070000C2004230090C8480068424214215F20BD
:10308000FEF7E6FD0EE096E0C0A214215020FEF708
:1030900029FE0C2004230090BF48142102685F2001
:1030A000FEF7D6FDBD48006800280FDAB6A21E2143
:1030B0000020FEF717FE0C2005230090B74800689B
:1030C00042421E210F20FEF7C3FD0DE0AFA21E21DC
:1030D0000020FEF707FE0C2005230090AF481E21BC
:1030E00002680F20FEF7B4FDAD48006800280FDA33
:1030F000A5A21E215020FEF7F5FD0C200423009010
:10310000A748006842421E215F20FEF7A1FD0DE0A6
:103110009EA21E215020FEF7E5FD0C200423009006
:103120009F481E2102685F20FEF792FD9D480068BF
:1031300000280FDA94A228210020FEF7D3FD0C20EE
:103140000523009097480068424228210F20FEF78F
:103150007FFD0DE08DA228210020FEF7C3FD0C208D
:10316000052300908F48282102680F20FEF770FD8C
:103170008D48006800280FDA83A228215020FEF72E
:10318000B1FD0C20042300908748006842422821AA
:103190005F20FEF75DFD42E17CA228215020FEF772
:1031A000A1FD0C20042300907F48282102685F20A5
:1031B000FEF74EFD33E1724800780128EBD17148EB
:1031C000006800280FDA70A20A210020FEF78AFDAD
:1031D0000C20052300906B48006842420A210F2012
:1031E000FEF736FD0DE069A20A210020FEF77AFD08
:1031F0000C200523009063480A2102680F20FEF787
:1032000027FD6A48006800280FDA5FA20A215020D3
:10321000FEF768FD0C2004230090644800684242D9
:103220000A215F20FEF714FD0DE058A20A2150206C
:10323000FEF758FD0C20042300905C480A21026828
:103240005F20FEF705FD5348006800280FDA4EA204
:1032500014210020FEF746FD0C20052300904D4868
:103260000068424214210F20FEF7F2FC0DE047A255
:1032700014210020FEF736FD0C2005230090454860
:10328000142102680F20FEF7E3FC4948006800287B
:103290000FDA3DA214215020FEF724FD0C20042358
:1032A000009043480068424214215F20FEF7D0FCA2
:1032B0000DE036A214215020FEF714FD0C2004234B
:1032C00000903B48142102685F20FEF7C1FC3348A0
:1032D000006800280FDA2CA21E210020FEF702FD54
:1032E0000C20052300902D48006842421E210F202B
:1032F000FEF7AEFC0DE025A21E210020FEF7F2FC39
:103300000C200523009025481E2102680F20FEF79F
:103310009FFC2848006800280FDA1BA21E215020BD
:10332000FEF7E0FC0C200423009022480068424293
:103330001E215F20FEF78CFC0DE014A21E21502000
:10334000FEF7D0FC0C20042300901A481E210268CE
:103350005F20FEF77DFC1348006800282CDA0AA2E3
:1033600028210020FEF7BEFC0C20052300900D480C
:103370000068424228210F20FEF76AFC2BE0000083
:103380006B000020500000202D0000002B000000EA
:103390000C000020540000201000002058000020E5
:1033A000140000205C000020180000201C000020F9
:1033B0002000002024000020AFF23002282100204D
:1033C000FEF790FC0C20052300903B482821026862
:1033D0000F20FEF73DFC39480068002810DAAFF2F4
:1033E000580228215020FEF77DFC0C200423009079
:1033F00032480068424228215F20FEF729FC0EE097
:10340000AFF2780228215020FEF76CFC0C20042338
:1034100000902A48282102685F20FEF719FC2848FE
:10342000007828B927A232210020FEF75BFC08E0D3
:1034300023480078012804D125A232210020FEF77C
:1034400051FC26A232215820FEF74CFC24A2322146
:103450006E20FEF747FC23480068642190FBF1F4DE
:103460000C2002232246322100904B20FEF7F0FB75
:103470001C480068642190FBF1F201FB12040C204F
:1034800002232246322100906220FEF7E1FB15481C
:103490000068642190FBF1F201FB12000A2807DAB0
:1034A0000C2002230022322100905C20FEF7D0FB8A
:1034B000FEF754FB38BD00005C000020280000200F
:1034C0006B00002056454C4F434954590000000002
:1034D000504F534954494F4E000000002E00000049
:1034E000560000006000002038B50446214890F8DE
:1034F0002400C0B114B10220009001E0002000902F
:103500001C4A1268D17B1B4A526810786B46012214
:10351000FFF76DF910B14FF0FF3038BD9DF8001086
:103520001448417423E01348807A10B94FF0FF30FB
:10353000F3E724B10F48407C08B10020EDE714B157
:103540000120009001E0002000900A4A1268D17B1F
:10355000084A526810786B460122FFF748F910B10B
:103560004FF0FF30D9E79DF8001002484174002069
:10357000D3E70000B00000202DE9C04130B4DFF8EF
:10358000A0C23CEA111418BF3CEA131400F0EC800E
:1035900081EA03051CEA111444EAD57418BF1CEA39
:1035A000131500F0C780A4EB05044FF0004545EA71
:1035B000C12145EAC32341EA505143EA525304F181
:1035C0007F74994204F500344FEAC0204FEAC222CA
:1035D00008BF904200F09C804FEA13650FF240163E
:1035E000765D4FEA134506FB05F7C7F1807706FBCA
:1035F00007F74FEAD737A7FB03687642C8F580384C
:10360000A7FB06CE38BFA8F1010807FB08E64FF07C
:10361000000EA6FB028CE6FB03CEDCF1000CCEF123
:10362000004E38BFAEF1010EA6FB0C584FF000075C
:103630004FF00005E6FB0E87A1FB08C6A0FB07CEF6
:1036400016EB0E0645F10005E1FB076515F1E04EAE
:103650007EBFA4F580345FEA46066D4116F180070F
:1036600045F100054FEA17274FEA066647EA056766
:10367000A6F1DE46B6F1805F4FEA15251FD9384620
:1036800024F0010C05EBC471BCF1FE6F01EB0C11D1
:1036900002D8F0BCBDE8008124425CBF01F5801E69
:1036A0009EEAC47F02D4F0BCBDE80081244238D435
:1036B000F0BCA1F1C041BDE8004100F0EFB94FEA14
:1036C000D22242EA43524FEAD323A7FB02864FEAB3
:1036D000D02040EA415007FB03661EEA0E0F4FEA76
:1036E000D12105FB026658BFA6EB0056B6EB00568B
:1036F0004FEA520E4EEAC37E18EB0E0E56EB530EF7
:10370000BDD518EB02085E417F1C55F10005B6E7F8
:103710004FF480154FF000074FF000064FF00008FF
:10372000ADE7F0BC4FF0000001F1C04101F00041F5
:10373000BDE8008111EA0C1F0CEA131500D00CE063
:1037400013EA0C1F00F025804FF00000F0BC81EA66
:10375000030101F00041BDE80081F0BCBDE800417B
:1037600081EA030100F09AB9F0BCBDE8004170B5F0
:1037700000F046F9097EFC3E00F007B881EA03013B
:103780004FF0000001F00041704781EA030100F0B2
:1037900085B9F0BCBDE800414FF0000021497047F9
:1037A000FFFDFBF9F7F5F4F2F0EEEDEBE9E8E6E406
:1037B000E3E1E0DEDDDBDAD8D7D5D4D3D1D0CFCD8D
:1037C000CCCBCAC8C7C6C5C4C2C1C0BFBEBDBCBBC6
:1037D000BAB9B8B7B6B5B4B3B2B1B0AFAEADACABC1
:1037E000AAA9A8A8A7A6A5A4A3A3A2A1A09F9F9E9B
:1037F0009D9C9C9B9A99999897979695959493934D
:10380000929191908F8F8E8E8D8C8C8B8B8A8989E3
:103810008888878786858584848383828281818066
:103820000000FF070000F87F4FEA41034FEA5353BF
:10383000A3F58063D3F11E03C8BFD3F1210C0CDDC7
:103840004FF0004242EAC12242EA505232FA03FCEF
:103850008CEAE17CACEBE1707047102BC4BF002018
:10386000704703F5787CBCF1FF3F04D06FF0004255
:1038700082EA2100704770B500F0C2F849922480B6
:1038800000207047F2E7B0FA80F310FA03F10AD093
:10389000C3F11D0303F580634FEA41504FEA035221
:1038A00002EBD12170474FF000007047DFF848C1AC
:1038B00070B51CEA111E1EBF1CEA13159EEA0C0F00
:1038C00095EA0C0F00F06F8081EA030423EA4C13A1
:1038D0004EEAD47E21EA4C1141F4801143F4801366
:1038E000AE44A1FB024CA0FB0365AEF17F7E36190E
:1038F00055EB0C05A1FB034C4CF10003A0FB021C93
:1039000016EB0C06654153F10003094218BF46F05F
:10391000010613F4007F0BD14FEA03314FEA053063
:10392000340341EA155140EA16506FF003020AE0F1
:103930004FEAC3214FEAC520F40241EA555140EA5B
:1039400056506FF0020202EB2E4201EB025585EA5F
:10395000CE710AD05FEA440C18BF24F0004450F145
:10396000000041F1000120EAD47040F2FE7C624583
:1039700000D270BDA84214BF4FF080444FF04044C5
:10398000002E08BF0024BEF1806FA8BFA1F1C04186
:10399000BDE8704080F282804FF0000001F1C0412C
:1039A00001F0004170479EEA0C0F0CEA131518BF96
:1039B00095EA0C0F06D04FF0000081EA030E0EF0DE
:1039C000004170BD00F01CF88900013E00F007B80E
:1039D00000F009B84FEA430C5FEA5C5C08D081EA6A
:1039E000030100F05BB84FEA410C5FEA5C5CF6D182
:1039F0004FF00000014970470000FF070000F87F0A
:103A00000EF1020E2EF0030E5EF8046B364205D462
:103A1000012A43EB030515F5001F12D8012841EBDD
:103A2000010C1CF5001F0CD80ED14FEAD17C15F506
:103A3000001F0CEB4C0C0CF1020C08BF4CEBD37CC0
:103A400004E04FF0080C01E04FEAD37C0CEB4C058E
:103A500026FA05F606F00706B6F1040C06D20EEBC0
:103A6000860CBDE870404CF0010C6047DFE80CF0BC
:103A7000090B02024FF000414FF00000A1F50021B8
:103A800070BD19461046012851EB010418BFD4F54A
:103A9000001484BF002001F0004170BD0808A0F5AB
:103AA00000114FEA3101704790EA010F48BF81F0E1
:103AB000004100F17882421A3CBF801A89184FEA0F
:103AC000D0524FF07F4C1CEA410FA2EBD15318BFEC
:103AD0009CEA026F00F03B804FF0004C4CEA002063
:103AE0004CEA012121FA03FC10EB0C0C1ED202F16E
:103AF000FF325FEA1C2040EBC25038BF70471CF019
:103B00007F0F4FEA400C18BFBCF17F4F38BF7047A2
:103B1000C3F12003994008BF20F00100BCF17F4FA2
:103B200038BF7047A0F1C04000F031BA4FEA3C0006
:103B3000000A40EBC25028BF1CF0FF0F4FEA400CB8
:103B4000E6D018BFBCF17F4F38BF7047EAE79CEA68
:103B5000026F05D010EA5C0F08BF00F0004070470C
:103B600010B500F0CEF900BF64FBBE3E401058BF58
:103B7000C0F14040491058BFC1F140418142EFF3CC
:103B8000008070474FF47F0C1CEAD0121EBF1CEA65
:103B9000D11392EA0C0F93EA0C0F00F0858090EAA3
:103BA000010F48BF42F4807240F4000C41F4000061
:103BB0002CF07F4120F07F4000B58142A2EB030250
:103BC0000FF2081CACEB504EC0F100009EF800E074
:103BD0004FEA4E0E00FB0EFC38BF49004FEA2C1C8A
:103BE00002F5FA020CFB0EF34FEACE1E4FEA112C3F
:103BF0004FEAC1210EEB635E42EB22420EFB0CFC4E
:103C00004FEA1C5300FB03114FEA112C4FEA01311C
:103C10000EFB0CFC4FEADC4C00FB0C11C14228BF30
:103C200009184CEB03335DF804EB10EB410143EB57
:103C3000C250B2F57C0F38BF704729D512F0F00F93
:103C40001CBF00F1C04000F000407047008182833B
:103C50008485868788898B8C8D8E8F91929395969B
:103C600097999A9C9D9FA0A2A3A5A7A8AAACAEB025
:103C7000B2B3B5B7B9BCBEC0C2C5C7C9CCCED1D42A
:103C8000D7D9DCDFE2E6E9ECF0F3F7FAFE0000005A
:103C90004FEA400C0CF1807CBCF17E4F28BF70478E
:103CA000B0F1C04000F073B990EA010F0CEAD113F3
:103CB00048BF42F48072624538BF634507D213F4AF
:103CC0007F0F16D080EA010000F00040704710B569
:103CD00000F017F9097EFC3E00F005B880EA01000B
:103CE00000F00040704780EA010000F0004000F062
:103CF0004EB912F47F0F04BF0248704780EA0100FA
:103D000000F045B90000C07F50EA010C00F11380BB
:103D10001CF5000F58BFBCF5000F01D48842704756
:103D200007D710F5000F58BF11F5000F15D48842C2
:103D30007047894270471CF5000F04D5BCF5000F91
:103D4000F7D5814270474FF0807C1CEB400F38BFA5
:103D50001CEB410F01D28142704710B500F0D1F841
:103D6000922449004FF000504FF08051FFF7FEBE03
:103D700041000B0ED3F19E0208D950F400034FEA24
:103D8000032323FA02F048BF4042704710B500F009
:103D9000B8F800BF49922480002070476FF00042BD
:103DA00082EA20007047000010F0004148BF404206
:103DB000B0FA80F310FA03F2C3F19D030BD051EA7D
:103DC000C35101EB1220530638BF704700F10100C8
:103DD00008BF20F001007047B0FA80F310FA03F238
:103DE000C3F19D030AD0D90501EB1220530638BF59
:103DF000704700F1010008BF20F00100704700008B
:103E00004FF47F0C1CEAD0121EBF1CEAD11392EAB9
:103E10000C0F93EA0C0F00F0478090EA010F48BFA7
:103E200042F480724FF0004C4CEA00204CEA012131
:103E300002EB0302A0FB0113A2F50002002918BF48
:103E400043F001035B0028BF4FEA330342EB2242F9
:103E50005FEA132C4CEBC2502EBFBCEB436FB2F5A4
:103E60007C0F70474FEA036CBCF1004F08BF20F095
:103E70000100B2F57C0F38BF70470BD582F0FF020E
:103E800012F5803FC8BF704700F1C040D8BF00F0B6
:103E90000040704700F5000C5FEA4C0C48BF7047CB
:103EA000B0F1C04000F073B890EA010F0CEAD113F2
:103EB00048BF42F48072624538BF634504D280EA4D
:103EC000010000F00040704710B500F01AF800BF84
:103ED0008900013E00F007B800F009B85FEA410C24
:103EE0005FEA1C6C08D080EA010000F050B85FEA7D
:103EF000400C5FEA1C6CF6D14FF00040A0F580004A
:103F000070470EF1020E2EF0030E5EF8044B2442B1
:103F100004D44FEA4102B2F17F4F11D84FEA400377
:103F2000B3F17F4F0CD80ED14FEAD07CB2F17F4F66
:103F30000CEB4C0C0CF1020C08BF4CEBD17C04E0F8
:103F40004FF0080C01E04FEAD17C0CEB4C0324FA53
:103F500003F404F00704B4F1040C06D20EEB840C55
:103F6000BDE810404CF0010C6047DFE80CF007089A
:103F700002024FF00040A0F5800010BD084642004C
:103F800018BFD2F1807288BF00F0004010BDFF2141
:103F900041EAD050C005704790EA010F48BF81F058
:103FA00000413FF588AD421A04D882F00042A0EBF0
:103FB000020011444FEAD0524FF07F4C1CEA410FEF
:103FC000A2EBD15318BF9CEA026F4AD04FF0004CCD
:103FD0004CEA00204CEA012121FA03FCB0EB0C0C66
:103FE0000FD412F0FE0F36D05FEA4C001DD5001240
:103FF00040EBC25038BF70471CF03F0F18BF7047EE
:104000000BE0A2F101025FEA1C2040EBC25038BF76
:1040100070471CF07F0F18BF7047C3F12003994011
:1040200014BF401E20F00100704780084FEA1223A1
:1040300008BF7047B0FA80FCA2EB0C02CCF1280C50
:1040400060FA0CF093EA122F04BF00EBC2507047E5
:104050004FEAC3707047130A5FEADC1008BF70476D
:10406000F6E79CEA026F04D010EA5C0F08BF00205C
:10407000704710B5FFF745FF40DFF63E81F0004086
:104080007047000000000000000000000000000079
:1040900000003F4000000000000000003000400031
:1040A00030004000000009000BC03D000BC03D0087
:1040B000090018C024407FE0224031800000180031
:1040C00024C01B000D803240018003801C4027402B
:1040D0001C8007400040100060000000000000004D
:1040E00000000000000000001F8020404020000071
:1040F000402020401F8000000000090006001F80B3
:10410000060009000000040004003F8004000400D1
:10411000000000100060000000000000000004002B
:10412000040004000400040000000000004000003F
:10413000000000000000002001C006003800400020
:1041400000001F802040204020401F800000000011
:1041500010403FC000400000000018C02140224035
:1041600024401840000010802040244024401B8040
:10417000000002000D0011003FC0014000003C8023
:10418000244024402440238000001F8024402440F9
:104190003440038000003000200027C03800200099
:1041A00000001B802440244024401B8000001C0091
:1041B00022C0224022401F80000000000000084072
:1041C000000000000000000000000460000000008B
:1041D0000000000004000A00110020804040090097
:1041E000090009000900090000000000404020808B
:1041F00011000A00040018002000234024001800C9
:1042000000001F802040274029401F400000004040
:1042100007C039000F0001C0004020403FC02440CB
:1042200024401B8000001F80204020402040308020
:10423000000020403FC0204020401F800000204060
:104240003FC024402E4030C0000020403FC02440EA
:104250002E00300000000F001080204022403380EC
:10426000020020403FC0040004003FC02040204026
:1042700020403FC02040204000000060202020203F
:104280003FC02000200020403FC024400B0030C031
:10429000204020403FC020400040004000C03FC0C0
:1042A0003C0003C03C003FC0000020403FC00C4029
:1042B00023003FC020001F802040204020401F805E
:1042C000000020403FC024402400180000001F8050
:1042D0002140214020E01FA0000020403FC024409A
:1042E000260019C0004018C02440244022403180DC
:1042F0000000300020403FC020403000000020007F
:104300003F80004000403F80200020003E0001C070
:10431000070038002000380007C03C0007C0380004
:104320000000204039C0060039C0204000002000B5
:10433000384007C0384020000000304021C02640EF
:10434000384020C00000000000007FE040204020F6
:104350000000000070000C0003800040000000001E
:10436000402040207FE000000000000020004000CE
:1043700020000000000000100010001000100010CD
:1043800000100000000040000000000000000000DD
:1043900002800540054003C0004020003FC00440AB
:1043A00004400380000000000380044004400640F5
:1043B000000000000380044024403FC00040000093
:1043C00003800540054003400000000004401FC07A
:1043D000244024402000000002E005500550065013
:1043E000042020403FC00440040003C000400000FF
:1043F000044027C00040000000000010001004101E
:1044000027E00000000020403FC00140070004C03A
:104410000440204020403FC000400040000007C052
:10442000040007C0040003C00000044007C00440AB
:10443000040003C0004000000380044004400380E7
:104440000000041007F00450044003800000000046
:1044500003800440045007F00010044007C00240ED
:10446000040004000000000006400540054004C0B0
:104470000000000004001F80044000400000040011
:1044800007800040044007C000400400070004C04B
:10449000018006000400060001C0070001C00600FC
:1044A0000000044006C0010006C0044000000410E3
:1044B000071004E00180060004000000044005C06D
:1044C0000640044000000000000004007BE04020A3
:1044D0000000000000000000FFF0000000000000ED
:1044E00040207BE00400000000004000800040000D
:1044F000200020004000000000000000000000003C
:104500000000000000000000000000001FCC000CB4
:1045100000000000000000000800300060000800FB
:10452000300060000000022003FC1E20022003FC7B
:104530001E200220000000000E1811043FFF10840E
:104540000C78000000000F0010840F3800C00778BE
:1045500018840078000000780F8410C411240E988D
:1045600000E40084000808006800700000000000FB
:1045700000000000000000000000000007E0181824
:10458000200440020000000040022004181807E048
:104590000000000000000240024001800FF0018096
:1045A0000240024000000080008000800FF8008080
:1045B0000080008000000001000D000E00000000DF
:1045C00000000000000000000080008000800080EB
:1045D0000080008000800000000C000C0000000043
:1045E00000000000000000000006001800600180CC
:1045F000060018002000000007F00808100410044E
:10460000080807F000000000080408041FFC00046C
:1046100000040000000000000E0C101410241044D0
:1046200011840E0C000000000C1810041104110479
:1046300012880C700000000000E00320042408240D
:104640001FFC0024000000001F98108411041104B6
:10465000108810700000000007F008881104110491
:1046600018880070000000001C00100010FC1300EF
:104670001C001000000000000E381144108410844B
:1046800011440E38000000000700088C104410444C
:10469000088807F00000000000000000030C030C75
:1046A0000000000000000000000000010106000002
:1046B0000000000000000000008001400220041003
:1046C000080810040000022002200220022002201C
:1046D000022002200000000010040808041002203C
:1046E00001400080000000000E001200100C106C51
:1046F00010800F00000003E00C1813E4142417C40A
:10470000082807D000000004003C03C41C400740F8
:1047100000E4001C000410041FFC11041104110427
:104720000E880070000003E00C1810041004100440
:1047300010081C10000010041FFC100410041004CA
:10474000080807F0000010041FFC1104110417C42E
:1047500010040818000010041FFC1104110017C0F9
:1047600010000800000003E00C18100410041044AE
:104770001C780040000010041FFC108400800080A2
:1047800010841FFC10040000100410041FFC10040F
:1047900010040000000000030001100110011FFEC2
:1047A00010001000000010041FFC110403801464AA
:1047B000181C1004000010041FFC10040004000466
:1047C0000004000C000010041FFC1F0000FC1F0070
:1047D0001FFC1004000010041FFC0C04030000E088
:1047E00010181FFC100007F0080810041004100433
:1047F000080807F0000010041FFC108410801080CF
:1048000010800F00000007F0081810241024101C5E
:10481000080A07F2000010041FFC1104110011C067
:1048200011300E0C000400000E1C110410841084C2
:1048300010441C3800001800100010041FFC100465
:1048400010001800000010001FF8100400040004FD
:1048500010041FF8100010001E0011E0001C007072
:1048600013801C0010001FC0103C00E01F0000E07F
:10487000103C1FC000001004180C163401C001C009
:104880001634180C100410001C00130400FC130450
:104890001C00100000000804101C10641084130495
:1048A0001C04101800000000000000007FFE400201
:1048B000400240020000000030000C000380006055
:1048C000001C0003000000004002400240027FFE86
:1048D0000000000000000000000020004000400038
:1048E0004000200000000001000100010001000163
:1048F0000001000100010000400040002000000015
:104900000000000000000000009801240144014460
:10491000014400FC000410001FFC00880104010495
:10492000008800700000000000700088010401048D
:1049300001040088000000000070008801040104E8
:1049400011081FFC0004000000F801440144014468
:10495000014400C800000000010401040FFC110420
:10496000110411001800000000D6012901290129B5
:1049700001C90106000010041FFC008401000100B1
:10498000010400FC000400000104190419FC0004E7
:1049900000040000000000000003000101011901F3
:1049A00019FE0000000010041FFC0024004001B4A8
:1049B000010C010400000000100410041FFC00049E
:1049C000000400000000010401FC0104010001FCDE
:1049D0000104010000FC010401FC0084010001004D
:1049E000010400FC0004000000F8010401040104BB
:1049F000010400F80000010101FF00850104010429
:104A000000880070000000000070008801040104AC
:104A1000010501FF00010104010401FC00840104FF
:104A2000010001800000000000CC012401240124C9
:104A300001240198000000000100010007F80104B2
:104A4000010400000000010001F80004000400045B
:104A5000010801FC0004010001800170000C00103D
:104A600001600180010001F0010C003001C0003044
:104A7000010C01F0010000000104018C00740170C0
:104A8000018C01040000010101810171000E001878
:104A900001600180010000000184010C0134014427
:104AA0000184010C00000000000000000000010073
:104AB0003EFC400240020000000000000000FFFF3A
:104AC0000000000000000000400240023EFC010027
:104AD0000000000000000000600080008000400036
:104AE000400020002000000068000004760054010F
:104AF000F7FD000175191A0C6A231B1C1F20727424
:104B0000433B4138393A6B6C376F06246D6E700049
:104B100083000000000800000001001832000500BA
:104B2000000020410000D242295C0F3E9A99993E34
:104B30003333733F295C0F3E584B000800000020C0
:104B4000980100006C010008804B000898010020CB
:104B5000880A0000C8010008810281018B204208F8
:104B60002B2041043214DA2C9913F44A1B08E80470
:104B700001200B10104B2405A86F12833B0000008E
:0400000508000131BD
:00000001FF
