:020000040800F2
:10000000D80C00200D020008FD220008A5170008EA
:100010009D21000899040008B13900080000000083
:10002000000000000000000000000000552E000845
:100030008907000800000000B527000841320008C9
:1000400027020008270200082702000827020008EC
:1000500027020008270200082702000827020008DC
:1000600027020008110B0008610B00082702000896
:1000700027020008270200082702000827020008BC
:1000800027020008270200082702000827020008AC
:100090003939000827020008270200082702000853
:1000A000270200082702000827020008270200088C
:1000B000A5320008BD320008D5320008270200082A
:1000C000270200082702000827020008270200086C
:1000D0002702000827020008C53500087D380008FF
:1000E000E907000827020008270200082702000885
:1000F000270200082702000827020008270200083C
:100100002702000827020008ED3200082702000835
:10011000270200082702000827020008270200081B
:10012000270200082702000827020008270200080B
:1001300000F002F800F05AF80AA090E8000C82449F
:100140008344AAF10107DA4501D100F04FF8AFF27C
:10015000090EBAE80F0013F0010F18BFFB1A43F0A5
:10016000010318473C7F00005C7F00000A444FF009
:10017000000C10F8013B13F0070408BF10F8014B06
:100180001D1108BF10F8015B641E05D010F8016B4B
:10019000641E01F8016BF9D113F0080F1EBF10F8AF
:1001A000014BAD1C0C1B09D16D1E58BF01F801CBD2
:1001B000FAD505E014F8016B01F8016B6D1EF9D555
:1001C0009142D6D37047000000230024002500266A
:1001D000103A28BF78C1FBD8520728BF30C148BFAA
:1001E0000B6070471FB51FBD10B510BD00F090F833
:1001F0001146FFF7F7FF04F00FFA00F0AEF803B472
:10020000FFF7F2FF03BC03F0E5FC0000094880475C
:1002100009480047FEE7FEE7FEE7FEE7FEE7FEE7E8
:10022000FEE7FEE7FEE7FEE704480549054A064B00
:10023000704700004532000831010008D806002050
:10024000D80C0020D8080020D808002070474FF0B4
:1002500000020429C0F0128010F0030C00F02A8084
:10026000CCF1040CBCF1020F18BF00F8012BA8BFA1
:1002700020F8022BA1EB0C0100F01CB85FEAC17C56
:1002800024BF00F8012B00F8012B48BF00F8012B18
:100290007047704770477047704710B500F030F8EE
:1002A000006810BD10B5044600F02AF8046010BDC7
:1002B0004FF0000200B5134694469646203922BFFF
:1002C000A0E80C50A0E80C50B1F12001BFF4F7AF4A
:1002D000090728BFA0E80C5048BF0CC05DF804EB2C
:1002E000890028BF40F8042B08BF704748BF20F89A
:1002F000022B11F0804F18BF00F8012B704700004F
:1003000000487047740600200048704774060020BB
:100310007546FFF7F9FFAE4605006946534620F0E3
:100320000700854618B020B5FFF77EFFBDE82040E6
:100330004FF000064FF000074FF000084FF0000BA1
:1003400021F00701AC46ACE8C009ACE8C009ACE854
:10035000C009ACE8C0098D46704710B50446AFF33C
:1003600000802046BDE81040FFF749BF464880693D
:1003700040F00400444988614448006820F470005B
:10038000424908604048806940F400703E498861F5
:100390000846C06840F40070C8600846C06820F491
:1003A0000070C8600846406820F440404860084635
:1003B000406840F4004048603548006835490840CE
:1003C000334908600846006808600846006820F461
:1003D00080700860081D006820F00200091D086098
:1003E0000846006820F4602008600846006840F471
:1003F000602008600846006840F4801008600846E5
:10040000006820F40060086021482830006820F46B
:1004100070001F4928310860084600680020086005
:100420001B480C30006820F4700019490C3108603A
:100430000846006840F4603008601548001D0068F8
:1004400040F001001249091D08600846006840F0AC
:100450000800086000BF0E48001D006800F008009A
:100460000028F8D10A48001D006840F0040008493F
:10047000091D086000BF0648001D006800F0040068
:100480000028F8D170470000001002400008014029
:1004900004240140FFFFF00000BFFEE7F0B5DDE9F6
:1004A0000554324E06EB0016366806F00406167048
:1004B000167836B92D4E06EB00163668760D0E60AE
:1004C00005E02A4E06EB00163668F6080E60274E49
:1004D00006EB0016366806F002061E70234E06EB89
:1004E0000016766806F00F062E70204E06EB0016FA
:1004F000B66826701D4E06EB0016B668360A6670A2
:100500001A4E06EB0016B668360CA670174E06EBB0
:100510000016B668360EE670144E06EB0016F66846
:100520002671124E06EB0016F668360A66710F4EFB
:1005300006EB0016F668360CA6710C4E06EB00169C
:10054000F668360EE67130B9094E366846F0200678
:10055000074F3E6009E0012807D1054E361D366879
:1005600046F02006024F3F1D3E60F0BDB0650040E2
:100570000C6400402DE9F0416E480078002870D1ED
:100580006D480078012846D16B48C07900F004001E
:1005900008B9012401E04FF0FF346748C07900F04A
:1005A000020008B9012501E04FF0FF356248C0792B
:1005B00000F0010008B9012601E04FF0FF365E4966
:1005C0008A78497802EB012101FB04F006F0FCFC7B
:1005D0005A49086058490A79C97802EB012101FBA0
:1005E00005F006F0F1FC5649086053498A794979CB
:1005F00002EB012101FB06F006F0E6FC5149086020
:10060000084602684E4801684C48006801F046FC04
:1006100000204D49086048480078022838D14648F3
:10062000C07900F0080008B9012401E04FF0FF3460
:100630004148C07900F0040008B9012501E04FF0FD
:10064000FF353D48C07900F0020008B9012601E0FD
:100650004FF0FF363848C07900F0010010B901278B
:1006600002E016E04FF0FF373348407860433749E7
:100670000860314880786843354908602E48C07862
:100680007043344908602C48007978433249086047
:100690004EE02848007801284AD1274800780128F0
:1006A00046D12548C07900F0040008B9012401E0D2
:1006B0004FF0FF342048C07900F0020008B901254E
:1006C00001E04FF0FF351C48C07900F0010008B987
:1006D000012601E04FF0FF3617498A78497802EB8E
:1006E000012101FB04F006F06FFC14490860124977
:1006F0000A79C97802EB012101FB05F006F064FCE0
:100700000F4908600C498A79497902EB012101FB04
:1007100006F006F059FC0B490860084602680848D4
:1007200001680648006801F0B9FB0020064908602E
:10073000BDE8F0816F00002070000020A4000020C0
:10074000A8000020AC0000205C0100205400002024
:10075000580000205C0000206000002008B5012146
:10076000082002F0E1F91420ADF8000028208DF8EF
:10077000030003208DF802006946024800F0BEFD28
:1007800008BD0000000C01407047000008B50121C1
:10079000102002F0C9F94FF48060ADF80000482045
:1007A0008DF8030003208DF8020069460C4800F024
:1007B000A5FD0220ADF800006946094800F09EFD45
:1007C0000420ADF800006946054800F097FD4FF49D
:1007D0008050ADF800006946024800F08FFD08BD6A
:1007E00000100140000C014070B5A44800680028CA
:1007F0007DD14FF40040A2490860A248007808B9B2
:10080000012000E000209F4908709F4800780128DF
:1008100004D19E480068401C9C4908609C480078B0
:10082000012804D19B480068401C9A4908609548FB
:100830000078012810D19848007848B99748007886
:10084000012805D1964897490A68026049684160C5
:1008500002F07AF9002070BD022002F0A3FA92495A
:1008600008609248006809680844904908600320BD
:1008700002F098FA8E4908608E48006809680844BA
:100880008C490860042002F08DFA40428A490860D1
:100890008A4800680968084488490860052002F011
:1008A00081FA404286490860864800680968084421
:1008B0008449086002F048F9642001F06BFB00F005
:1008C00039FF054606F080FB04467F480168204654
:1008D00006F0DAF97C4908604FF07E517B480068E9
:1008E00006F0D2F9794904460860794900E0ABE0A6
:1008F00006F0FAFA0ED176497348006806F032FA2B
:10090000044606F025FB7349086000206E49086024
:100910006E49086070480078012803D05F4800786D
:10092000012801D1FFF726FE6C480068002806DD8B
:100930006A4800680F2802DA0F2068490860654895
:10094000006802F01BFE00287ED16548007800BBDD
:10095000644801685448006801F030F96249086051
:10096000624801685248006801F07EF960490860F9
:10097000604801685048006801F0CCF95E490860A1
:100980005E4801684E48006801F01AFA5C49086048
:1009900064E05148007880B94048007868B9594807
:1009A000007818B958480078584908704C480078C1
:1009B00000F052FD0020544908604A4801683B4855
:1009C000006801F0F9FE00124749086047480168D5
:1009D0003848006801F05EFF00124549086045484C
:1009E00001683648006801F0C3FF00124249086000
:1009F000424801683348006802F028F80012404974
:100A000008603648036802680168006803F014F85B
:100A10003548006841422448006801F0CFF8324967
:100A200008603348006841422148006801F01CF921
:100A30002F4908603048006841421F48006801F0B3
:100A400069F92D49086000E016E02D480068414230
:100A50001B48006801F0B4F92949086041F6F42008
:100A600002F0A8FF2648036823480268204801686E
:100A70001D48006802F042FB0020ECE63C81214268
:100A800014040140500100206D0000206801002086
:100A90006E0000200402002082000020810000205F
:100AA00070000020780000201000002020000020AE
:100AB000140000202400002018000020280000203E
:100AC0001C0000202C0000205801002054010020B0
:100AD0000000C8426400002080000020C400002004
:100AE0006F00002054000020440000205800002027
:100AF000480000205C0000204C0000206000002026
:100B00005000002095000020640100200A00002011
:100B100010B5082000F052F8E8B1082000F048F8BD
:100B200028200D4908700020C870084601F0E8FB35
:100B300000231A461946184602F0E0FA07480078E2
:100B400008B102F03DFA2820034908700120C8705E
:100B5000084601F0D5FB10BD000200200000002077
:100B600010B5102000F02AF8E8B1102000F020F8AD
:100B700028200D4908700020C870084601F0C0FB0D
:100B800000231A461946184602F0B8FA074840787A
:100B900008B102F0EBF92820034908700120C87061
:100BA000084601F0ADFB10BD00020020000000204F
:100BB000014908607047000014040140014600200C
:100BC0000022074B1B6803EA0102054B14331B6824
:100BD0000B4013B10AB1012000E000207047000073
:100BE00000040140002123498279002A3AD00A46B4
:100BF000126803689A430B461A600A1D126803685C
:100C00009A430B1D1A60027911440A6803681A435B
:100C10000A60184A0832126803689A43154B083371
:100C20001A601A1D126803689A43124B0C331A603B
:100C30004279102A0ED11A1F126803681A430D4B0D
:100C400008331A601A1D126803681A43094B0C33E3
:100C50001A600DE00749427911440A6803681A4393
:100C60000A6005E0027911440A6803689A430A6041
:100C700070470000000401401FB51020ADF80C00C3
:100C800048208DF80F0003208DF80E0003A92F488F
:100C900000F034FB0820ADF80C0048208DF80F0060
:100CA00003208DF80E0003A9284800F027FB01213E
:100CB000042001F039FF4FF4A06001F059FB0A2035
:100CC0008DF8080002208DF8090000208DF80A0038
:100CD00001208DF80B0002A801F012FB4FF4A06078
:100CE00001F046FB09208DF8080002208DF809006C
:100CF00000208DF80A0001208DF80B0002A801F0F9
:100D0000FFFA0421002000F0D9FA10200090002002
:100D10008DF804000C208DF8050001208DF80600E8
:100D20006846FFF75FFF0321002000F0C7FA0820A4
:100D3000009000208DF804000C208DF805000120A3
:100D40008DF806006846FFF74DFF1FBD0008014003
:100D500010B51248806940F00800104988611048B9
:100D6000006820F070400E4908600846006840F0B6
:100D7000004008600A480830006840F40040084914
:100D80000831086001220F21104600F0CDF902233E
:100D900028220121184601F0A7F910BD00100240D9
:100DA000040C014010B53748406840F48070354964
:100DB00048603548C06940F001003349C8610846C1
:100DC000806940F0040088610846806940F00800AE
:100DD00088612E48006820F070402C490860084661
:100DE000006840F0804008602948006820F47040A6
:100DF000274908600846006840F4804008604FF0CA
:100E00008040808940F001004FF080418881084691
:100E1000808940F04000888101231C22032118466C
:100E200001F062F900204FF0804108854FF6FF7015
:100E300088850846008820F44070088008460088AD
:100E400020F0600008800846008B40F00100088315
:100E50000846008B40F4807008830846008C20F020
:100E6000020008840846008C20F020000884084610
:100E7000008940F0030008810846008840F0010026
:100E8000088010BD0000014000100240040801402D
:100E9000000C014010B53348C06940F002003149F0
:100EA000C8610846806940F0080088612E480068E3
:100EB00020F07F402C4908600846006840F08840D8
:100EC00008602A48008840F0010028490880084648
:100ED000008840F04000088001231D2203211846AD
:100EE00001F002F9002021491C3108804FF6FF7003
:100EF000091D08801D480C38008820F440701B49EB
:100F00000C3908800846008820F0600008801748E7
:100F10000C30008840F0010014490C31088008466C
:100F2000008840F48070088010481430008820F059
:100F300002000E49143108800846008820F0200085
:100F400008800A48001F008840F003000749091F75
:100F5000088006480C38008840F0010003490C392D
:100F6000088010BD00100240000801400C04004041
:100F700010B53348C06940F004003149C8610846E3
:100F8000806940F0080088612E48006820F07F40AA
:100F90002C4908600846006840F0884008602A48EC
:100FA000008840F00100284908800846008840F089
:100FB0004000088001231E220321184601F094F806
:100FC000002021491C3108804FF6FF70091D088060
:100FD0001D480C38008820F440701B490C390880EB
:100FE0000846008820F06000088017480C30008810
:100FF00040F0010014490C3108800846008840F494
:101000008070088010481430008820F002000E49DB
:10101000143108800846008820F0200008800A4823
:10102000001F008840F003000749091F0880064898
:101030000C38008840F0010003490C39088010BDCD
:1010400000100240000C01400C08004010B533486D
:10105000C06940F008003149C8610846806940F025
:10106000040088612E48006820F0FF002C490860C9
:101070000846006840F044000860C804808940F0D9
:101080000100C90488810846808940F040008881B9
:10109000012332220321184601F026F800202149BD
:1010A00008804FF6FF70091D08801E482838008808
:1010B00020F440701B49283908800846008820F039
:1010C0006000088017481038008840F0010015497A
:1010D000103908800846008840F480700880114864
:1010E0000838008820F002000E49083908800846B8
:1010F000008820F0200008800A482038008840F04E
:10110000030008492039088006482838008840F044
:10111000010004492839088010BD00000010024079
:1011200000080140280C004070B504460B46CE175D
:1011300001EB9676C6F38700CE1701EB9676B610D4
:10114000A1EB8606B606350E1C4B9B6943F00103E6
:101150001A4EB3614FEAB63353F820300F26AE4033
:10116000B343174E46F82030334653F8203004FA84
:1011700005F61E43124B43F82060124B1B680126F4
:101180008E4033430F4E336002F0010343B10D4BE9
:101190000C331B6801268E4033430A4E0C363360F5
:1011A00002F0020343B1074B08331E6801238B4052
:1011B0001E43044B08331E6070BD00000010024047
:1011C000080001400004014010B50A222F493048B0
:1011D00001F02CFE2D4800884FF6FF7188422DD17A
:1011E0002A484088884229D128488088884225D1C9
:1011F0002648C088884221D12448008988421DD1D0
:1012000022484089884219D120488089884215D1D6
:101210001E202049086040F6B8301F4908601F486A
:101220001F49086000201F4908601F481F490860C7
:101230001F48204908602049086025E013480088BD
:101240001449086011484088134908600F4988888C
:1012500005F0D2FE124908600C49C88805F0CCFEA2
:10126000104908600949088905F0C6FE0F49086061
:101270000649488905F0C0FE0E490860034988897F
:1012800005F0BAFE0C49086010BD000008020020FD
:1012900000E00008C4000020C80000200000A041B9
:1012A000B0000020B400002000004843B800002037
:1012B00000004041BC000020C000002030B50022EA
:1012C0008B071C0F0F2303FA04F20B4B8C1053F8FF
:1012D00024309343084C8D1044F8253023468C105D
:1012E00053F824308C07240F00FA04F42343024CF3
:1012F0008D1044F8253030BD080001402DE9F04143
:10130000024600250026002000230024002791F833
:1013100003C00CF00F0591F803C00CF0100CBCF1E9
:10132000000F03D091F802C04CEA050591F800C007
:10133000BCF1000F31D0146800202BE04FF0010CFD
:101340000CFA00F3B1F800C00CEA03069E4220D16B
:1013500083004FF00F0C0CFA03F7BC4305FA03FCB3
:101360004CEA040491F803C0BCF1280F06D14FF0F9
:10137000010C0CFA00FCC2F814C00AE091F803C09A
:10138000BCF1480F05D14FF0010C0CFA00FCC2F87B
:1013900010C0401C0828D1D31460B1F800C0BCF1C3
:1013A000FF0F34DD546800202EE000F1080C4FF0F0
:1013B000010808FA0CF3B1F800C00CEA03069E42DB
:1013C00021D183004FF00F0C0CFA03F7BC4305FA50
:1013D00003FC4CEA040491F803C0BCF1280F05D1CA
:1013E00000F1080C08FA0CF8C2F8148091F803C058
:1013F000BCF1480F07D100F1080C4FF0010808FAC2
:101400000CF8C2F81080401C0828CED35460BDE808
:10141000F081000001460F48006820F01F000D4ACF
:10142000106010460068084310600A482C380068B5
:1014300040F48000074A2C3A106000BF0548343859
:10144000006800F002000028F8D002481830006858
:1014500080B27047342401402DE9F04704464FF034
:101460007C5A4FF00109002C71D1A7480078092857
:101470006ED2DFE800F07F05122330414E5F6E0030
:101480000020A24908605146A148006805F0FCFB15
:101490009F4908604FF001098BE051469B48006866
:1014A00005F0F2FB9949086051469948006805F03B
:1014B000EBFB974908604FF001097AE051469348E9
:1014C000006805F0E1FB9149086000209049086040
:1014D0004FF001096DE051468C48006805F0D4FBDF
:1014E0008A49086051468A48006805F0D5FE884957
:1014F00008604FF001095CE0002084490860514613
:101500008348006805F0C8FE814908604FF0010972
:101510004FE051467D48006805F0BEFE7B490860FB
:1015200051467B48006805F0B7FE794908604FF0E6
:1015300001093EE051467548006805F0ADFE73496B
:1015400008600020724908604FF0010931E0CFE0E7
:1015500010E051466D48006805F09EFE6B4908603A
:1015600051466B48006805F08FFB694908604FF0F1
:1015700001091EE04FF000096448006805F058FBBF
:101580000746644A644B04F055FE054604F064FDCA
:101590005E4908605E48006805F04AFB07465D4A00
:1015A0005D4B04F047FE054604F056FD58490860BF
:1015B00000BF00BFB9F1000F23D1584800780128BF
:1015C0000AD151465648006805F066FE5449086045
:1015D00000205449086014E05348007801280AD1DB
:1015E00051464F48006805F04FFB4D490860002008
:1015F0004C49086005E00020494908604B484949CA
:101600000860B9F1010F06D100204449087046492D
:1016100008704349086046480068404205F0D4FC21
:1016200005463A480168284605F0FAFD06D24048CA
:101630000068404205F0C8FC344908603C48006836
:1016400005F0C2FC054631480168284605F0E8FC73
:1016500005D23748006805F0B7FC2C4908603448CB
:101660000068404205F0B0FC05462948016828465C
:1016700005F0D6FD06D22E480068404205F0A4FCD5
:10168000234908602A48006805F09EFC054620486A
:101690000168284605F0C4FC05D22548006805F01D
:1016A00093FC1B49086022480068404205F08CFC0E
:1016B00005461B480168284605F0B2FD06D21C48C5
:1016C0000068404205F080FC154908601848006831
:1016D00005F07AFC054612480168284605F0A0FC92
:1016E00007D21348006805F06FFC0D49086000E060
:1016F00000BF0B480268064801680448006800F013
:10170000CDFBBDE8F08700000A000020A400002007
:10171000A8000020CDCCCCCCCCCCF03F08000020E1
:10172000AC0000205C010020090000206F12833B08
:10173000C40000202DE9F04F87B00520FFF76AFEB6
:10174000019004F015FF80464FF06632104B04F014
:101750005FFF00220F4BCDE9020104F059FF002288
:101760000D4BCDE9040104F053FF064600220B4B5C
:1017700004F060FD04460022094B04F05BFD824644
:1017800004F0B0FE0690069807B0BDE8F08F0000A8
:1017900066660A4000002640000059400000F03F05
:1017A0000000B04000BFFEE770B505460E460024BD
:1017B00000F0EAF8284600F0B5F8641C00F03CF9A7
:1017C000304600F0AFF8641C00F036F900F0DCF8A9
:1017D000691CC8B200F0A6F8641C00F02DF90020C6
:1017E00000F068F8044600F003F9204670BD0000E0
:1017F00010B500200E4908600E48006820F47040C3
:101800000C4908600846006840F440500860002019
:101810000949C1F8AC01012002F076FD012004491C
:10182000086002F071FD00200349C1F8A80110BD55
:10183000A8812142040C01400080214208488069AF
:1018400040F00800064988610648006820F47F409F
:10185000044908600846006840F44C50086070472E
:1018600000100240040C014010B500200E49086031
:101870000E48006820F470400C4908600846006873
:1018800040F44050086001200949C1F8AC0102F061
:101890003BFD01200449086002F036FD00200449A8
:1018A000C1F8A80110BD0000A8812142040C01402C
:1018B0000080214270B5054600241748006820F4D6
:1018C0007040154908600846006840F40040086010
:1018D000002616E0002011490860022002F014FDE5
:1018E00001200F49C1F8A8016006040E0B487C389E
:1018F000006808B1601CC4B2022002F005FD701C33
:10190000C6B2082EE6DB15B1FFF772FF01E0FFF764
:10191000ABFF204670BD0000040C0140A8812142AD
:101920000080214270B504461448006820F47040DD
:10193000124908600846006840F4405008600020E2
:101940000F490860002516E0E0090D49091D0860EF
:101950006006040E012002F0D7FC01200949C1F8FD
:10196000A80102F0D1FC002005490860012002F026
:10197000CBFC681CC5B2082DE6DB70BD040C014031
:10198000A88121420080214210B51648006820F449
:101990007040144908600846006840F440500860F0
:1019A0000120114908601148D0F82C0108B9002025
:1019B00010BD01200C49091F086002F0A5FC0020A1
:1019C0000A49C1F8AC0108488038006808B1002015
:1019D000EEE7012002F098FC00200349091F08608F
:1019E0000120E5E7040C0140AC8121420080214246
:1019F00010B50E48006820F470400C490860084695
:101A0000006840F440500860002009490860094916
:101A1000C1F8AC01012002F077FC01200449086004
:101A20000449C1F8AC0102F06FFC10BD040C014088
:101A3000A88121420080214210B500241548006889
:101A400020F47040134908600846006840F40040E4
:101A5000086001201049086002F056FC01200F497F
:101A6000C1F8A80102F050FC0AE0601CC4B2322C9C
:101A700003DDFFF7BDFF002010BD012002F044FC94
:101A80000548803800680028EFD10349091F086025
:101A90000120F1E7040C0140AC8121420080214289
:101AA00070B505460E46144631462846FFF77CFEC3
:101AB0002070012070BDF8B506460F4614461D463D
:101AC0006A4639463046FFF7EBFF2DB10120A040B2
:101AD0009DF80010084305E00120A0409DF800108B
:101AE00021EA0000C0B200909DF80020394630463F
:101AF00000F036F8F8BD2DE9F8430746884614464D
:101B00001D46089E6A4641463846FFF7C9FF28B37E
:101B1000601CFF2101FA00F0C4F108012944491EAC
:101B2000FF220A41104300F0FF09C5F1080006FA40
:101B300000F0C6B2C4F1070006419DF8000000EABB
:101B4000090000909DF80000304300909DF80020AF
:101B50004146384600F004F8BDE8F8830020FBE772
:101B600037B504460D4602AB01222946204600F057
:101B700001F83EBD2DE9F04180460D4616461F4650
:101B80000024FFF701FF4046FFF7CCFEFFF754FFAC
:101B90002846FFF7C7FEFFF74FFF00BF06E0385D9E
:101BA000FFF7C0FEFFF748FF601CC4B2B442F6DB8B
:101BB000FFF71EFF0120BDE8F08100002DE9F05F76
:101BC00004460D46601B224908600846006805F07F
:101BD000FBF983461F480168584605F055FA8046D0
:101BE0001B4909681C4A1268881A05F0EDF98346FA
:101BF0001A480168584605F047FA8146414605F003
:101C000043F807461648006805F0DEF98246394673
:101C100005F03AF8064605F09BF9114908600846B8
:101C20000068B0F5E15F02DD4FF4E15008600C4858
:101C3000006810F5E15F02DA0A48094908600448C3
:101C400000680549086006480068BDE8F09F00008C
:101C50006C010020C000002074010020BC000020A6
:101C600070010020E0E3FFFF2DE9F05F04460D4620
:101C7000601B224908600846006805F0A5F9834604
:101C80001F480168584605F0FFF980461B4909685E
:101C90001C4A1268881A05F097F983461A480168A9
:101CA000584605F0F1F98146414604F0EDFF07463C
:101CB0001648006805F088F98246394604F0E4FFCA
:101CC000064605F045F91149086008460068B0F578
:101CD000E15F02DD4FF4E15008600C48006810F548
:101CE000E15F02DA0A4809490860044800680549CA
:101CF000086006480068BDE8F09F000078010020F9
:101D0000C000002080010020BC0000207C010020D9
:101D1000E0E3FFFF2DE9F05F04460D46601B22491A
:101D200008600846006805F04FF983461F480168BF
:101D3000584605F0A9F980461B4909681C4A1268F3
:101D4000881A05F041F983461A480168584605F09B
:101D50009BF98146414604F097FF07461648006804
:101D600005F032F98246394604F08EFF064605F04A
:101D7000EFF81149086008460068B0F5E15F02DD40
:101D80004FF4E15008600C48006810F5E15F02DA9A
:101D90000A4809490860044800680549086006487F
:101DA0000068BDE8F09F000084010020C000002012
:101DB0008C010020BC00002088010020E0E3FFFF30
:101DC0002DE9F05F04460D46601B22490860084675
:101DD000006805F0F9F883461F480168584605F089
:101DE00053F980461B4909681C4A1268881A05F095
:101DF000EBF883461A480168584605F045F98146D4
:101E0000414604F041FF07461648006805F0DCF83B
:101E10008246394604F038FF064605F099F8114924
:101E2000086008460068B0F5E15F02DD4FF4E1505C
:101E300008600C48006810F5E15F02DA0A480949B9
:101E40000860044800680549086006480068BDE865
:101E5000F09F000090010020C000002098010020A9
:101E6000BC00002094010020E0E3FFFF014649068A
:101E7000084A926942F00102064B9A61064A52688A
:101E800022F0E062044B5A601A4652680A435A60D4
:101E90007047000000100240000001402DE9F047AB
:101EA00004460E4615462749284605F0EDF88246B9
:101EB00084F000493146484604F0E6FE804651462B
:101EC00005F0EAF9074605F043F81F4908601D4987
:101ED000284605F0D9F880463146204604F0D4FE65
:101EE0008146414605F0D8F9074605F031F8174913
:101EF00008601449284605F0C7F8824684F0004976
:101F00003146484604F0C0FE8046514604F0BCFE0F
:101F1000074605F01DF80E4908600A49284605F0F5
:101F2000B3F880463146204604F0AEFE8146414675
:101F300004F0AAFE074605F00BF806490860BDE864
:101F4000F08700001058393E54000020580000204F
:101F50005C000020600000200C48806940F0080010
:101F60000A4988610A48006820F47000084908603E
:101F70000846006840F440100860054808300068D2
:101F800040F40050024908310860704700100240D8
:101F9000040C014018B90021094A11600FE00949F9
:101FA0000968491C074A1160814208D1044909683F
:101FB000C943054AC2F8B4110021024A11607047B2
:101FC000B4812142D40000200080214270B5044633
:101FD0000D46634222466142204600F015FF284626
:101FE00002F0B0F970BD10B5022000F010F8032027
:101FF00000F021F8002000F014F8002000F037F87D
:10200000002000F02BF8002000F01FF810BD38B5BC
:102010000446032302226B21D0200094FFF76BFDBE
:1020200038BD38B50446022304221C21D020009478
:10203000FFF761FD38BD38B50446022304221B2199
:10204000D0200094FFF757FD38BD10B50446234655
:1020500001223721D020FFF72EFD10BD10B5044618
:10206000234605226A21D020FFF725FD10BD10B5BB
:102070000446234606226B21D020FFF71CFD10BD2D
:1020800000B5002015490861C8601420486100208F
:102090008861C8610846006840F001000860084691
:1020A00040680F4908400D494860084600680D49DE
:1020B00008400A4908600846006820F4802008604B
:1020C0000846406820F4FE00486000208860002137
:1020D0004FF0006000F058F800BD00000010024012
:1020E0000000FFF8FFFFF6FE2DE9F04107468846A5
:1020F00014461D46284600F033F8C5F1040007FADF
:1021000000F60F20284100EA0800064306F00F06FB
:10211000E21704EBD2625211920002F1E022D2F8EF
:1021200000212146E31704EBD3635B11A4EB431CAE
:10213000012303FA0CF31A432046E31704EBD3639D
:102140005B119B0003F1E023C3F800210348005D0D
:1021500040EA061001490855BDE8F08100E400E0BE
:102160000146072323EA01021202054B18684FF6C5
:10217000FF031840034B18431043014B186070478E
:102180000CED00E00000FA05024A0A400243024B4F
:102190001A60704780FFFF1F08ED00E000BFFEE7F8
:1021A0001048806940F008000E498861084680693F
:1021B00040F0100088610C48006820F0FF000A49D8
:1021C00008600846006840F0220008600748006880
:1021D00020F47F00054908600846006840F40810B4
:1021E0000860704700100240000C014000100140E0
:1021F00000B503460A46FFF7D3FF3D48806940F427
:1022000000503B4988610846806940F010008861B1
:102210003848406820F0FF0036494860084640686A
:1022200040F0BB0048600846006820F07F4008602E
:102230000846006840F03B4008602F480380001FBC
:1022400002802D481438008840F060002A49143973
:1022500008800846008840F4C0400880081D0088B7
:1022600040F06000091D08800846008840F4C04026
:102270000880081F008840F00800091F08800846F1
:10228000008840F400600880081D008840F00800C5
:10229000091D08800846008840F400600880081D79
:1022A000008840F00100091D08800846008840F0C1
:1022B000100008800846008840F4807008800846B6
:1022C000008840F4805008800B481830008840F4A3
:1022D00000400949183108804FF4004006492C3964
:1022E00008800846008840F00100088000BD00001A
:1022F00000100240001001402C34014070470000E3
:1023000070B5002100230F22C47804B3154C246853
:1023100004F4E064C4F5E064210AC1F10403CA4096
:10232000447804FA03F184781440214309010E4CE7
:102330000678A155047804F01F050124AC40057807
:102340006D11AD0005F1E025C5F8004109E0047804
:1023500004F01F050124AC40044D0678761145F8C1
:10236000264070BD0CED00E000E400E080E100E0FC
:1023700002490143024A1160704700000000FA055B
:102380000CED00E030B500240CE0002506E0002054
:10239000074901EBC5010855681CC5B2802DF6DB65
:1023A000601CC4B2082CF0DB00F0F2F830BD000075
:1023B00030020020F0B5144600267F2801DC3F29BA
:1023C00000DDF0BD0B46CF1701EB5777FF10C7F1CB
:1023D0000707FAB2CF1701EB5777FF10A1EBC7073A
:1023E000FDB2C5F107070123BB40DEB24CB10A4B79
:1023F00003EBC0039B5C3343074F07EBC007BB54A1
:1024000008E0054B03EBC0039B5CB343024F07EBB3
:10241000C007BB5400BFD4E73002002010B55548B8
:10242000806940F01000534988610846806940F097
:102430000100886150484068C0F313004E4948606D
:10244000084640684D4908434B49486008460068C3
:1024500020F00F0008600846006840F002000860A5
:102460004748006840F48070454908604148006A68
:1024700020F001003F4908624248008820F0010036
:10248000404908803E48006820F480703C4908605C
:1024900000203D490860642001F018FF01203B49FD
:1024A000C1F8BC010021AE2000F058F90021D52070
:1024B00000F054F90021502000F050F90021A8202C
:1024C00000F04CF900213F2000F048F90021D32012
:1024D00000F044F90021084600F040F900214020B6
:1024E00000F03CF900218D2000F038F90021142083
:1024F00000F034F90021202000F030F90021022002
:1025000000F02CF90021A12000F028F90021C020C2
:1025100000F024F90021DA2000F020F90021122037
:1025200000F01CF90021812000F018F90021EF20B3
:1025300000F014F90021D92000F010F90021F12059
:1025400000F00CF90021DB2000F008F90021302018
:1025500000F004F90021A42000F000F90021A620D9
:1025600000F0FCF80021AF2000F0F8F8FFF70AFFB8
:1025700010BD0000001002400010014000002022A9
:1025800000700040306C0040BC012242000022423A
:1025900030B500241CE004F1B001C8B2002100F005
:1025A000DDF80021084600F0D9F80021102000F0E5
:1025B000D5F8002508E0084901EBC501085D0121B7
:1025C00000F0CCF8681CC5B2802DF4DB601CC4B2EE
:1025D000082CE0DB30BD0000300200202DE9F04F78
:1025E00080460C4615461E46A346A5F12000C5B2FE
:1025F00000273EE00C2E07D105EB45001F4901EBFB
:10260000800010F8079004E01D4800EB051010F85A
:1026100007904FF0000A26E009F0800028B121461B
:102620004046099AFFF7C6FE09E0099808B901205B
:1026300000E00020024621464046FFF7BBFE4FEA7D
:1026400049604FEA1069601CC4B2A4EB0B00B042B1
:1026500005D15C4608F1010000F0FF0806E00AF130
:10266000010000F0FF0ABAF1080FD5DB00BF781CAB
:10267000C7B2B742BEDBBDE8F08F0000727400083D
:10268000E67800082DE9FF4F81B0074691461E46C7
:102690000E9D4FF0000A002439E0301B401EC1B2ED
:1026A0000A2002F0B2FBB9FBF0F00A21B0FBF1F214
:1026B00001FB1208BAF1000F16D1701EA04213DD03
:1026C000B8F1000F0ED10120AB4605EBDB714910CC
:1026D00001FB04710090C8B22B4620220299FFF73B
:1026E0007DFF12E04FF0010A0120AB4605EBDB71E4
:1026F000491001FB04710090C8B208F13001CAB260
:102700002B460299FFF76AFF00BF601CC4B2B442B7
:10271000C3DB05B0BDE8F08F78B505460E4614461C
:1027200018E07A2D03DD002506F11000C6B23A2E1E
:1027300004DD002005460646FFF724FE0120009038
:1027400022780C2331462846FFF748FF05F10800A0
:10275000C5B2641C20780028E3D178BD10B50A46C4
:102760001AB10123124C236002E00023104C2360B5
:10277000002116E000230E4C3434236000F0800367
:102780001BB10123241D236003E00023084C3834CF
:1027900023600123064C343423604306180E4B1C7F
:1027A000D9B20829E6DB0123014C236010BD0000EB
:1027B00080012242704700002DE9F04704460D4693
:1027C000601B04F001FC27490860084601682648A0
:1027D000006804F059FA2449086024492248006836
:1027E00004F01EFD02D222481F49086021491E48FC
:1027F000006804F015FC02D21F481B4908601F48FE
:1028000001681848006804F047FD80461C480168CC
:10281000404604F039FC06461A491B48006804F09B
:10282000A1FA824610480168504604F02DFC80460B
:102830000C4801681548006804F026FC81464146B2
:1028400004F022FA0746314604F01EFA10490860E7
:1028500004480068094908600D48006804F078FBE6
:10286000BDE8F0879C010020A40100200050C34770
:1028700000401C460050C3C700401CC6A8010020F1
:10288000B80000200000C842B4000020B0000020C2
:10289000A00100202DE9F04704460D46601B04F01E
:1028A00093FB27490860084601682648006804F041
:1028B000EBF92449086024492248006804F0B0FC80
:1028C00002D222481F49086021491E48006804F0CE
:1028D000A7FB02D21F481B4908601F48016818481F
:1028E000006804F0D9FC80461C480168404604F0AA
:1028F000CBFB06461A491B48006804F033FA8246AF
:1029000010480168504604F0BFFB80460C4801683F
:102910001548006804F0B8FB8146414604F0B4F95C
:102920000746314604F0B0F91049086004480068D1
:10293000094908600D48006804F00AFBBDE8F0870B
:10294000AC010020B40100200050C34700401C46E9
:102950000050C3C700401CC6B8010020B8000020CA
:102960000000C842B4000020B0000020B0010020E8
:102970002DE9F04704460D46601B04F025FB27496E
:102980000860084601682648006804F07DF924497B
:10299000086024492248006804F042FC02D2224820
:1029A0001F49086021491E48006804F039FB02D223
:1029B0001F481B4908601F4801681848006804F058
:1029C0006BFC80461C480168404604F05DFB0646EF
:1029D0001A491B48006804F0C5F98246104801688E
:1029E000504604F051FB80460C48016815480068C9
:1029F00004F04AFB8146414604F046F90746314659
:102A000004F042F910490860044800680949086068
:102A10000D48006804F09CFABDE8F087BC01002076
:102A2000C40100200050C34700401C460050C3C7EB
:102A300000401CC6C8010020B80000200000C842A9
:102A4000B4000020B0000020C00100202DE9F047B4
:102A500004460D46601B04F0B7FA27490860084693
:102A600001682648006804F00FF9244908602449E9
:102A70002248006804F0D4FB02D222481F490860B3
:102A800021491E48006804F0CBFA02D21F481B49B6
:102A900008601F4801681848006804F0FDFB804684
:102AA0001C480168404604F0EFFA06461A491B48E4
:102AB000006804F057F9824610480168504604F057
:102AC000E3FA80460C4801681548006804F0DCFA17
:102AD0008146414604F0D8F80746314604F0D4F860
:102AE0001049086004480068094908600D480068FA
:102AF00004F02EFABDE8F087CC010020D4010020BC
:102B00000050C34700401C460050C3C700401CC6CD
:102B1000D8010020B80000200000C842B400002006
:102B2000B0000020D001002029B1064A926902437A
:102B3000044B9A6104E0034A92698243014B9A6113
:102B400070470000001002402DE9F04F8FB00CA834
:102B500089490DAB08AACDE900108849884801F0E1
:102B600009FC8548008800F4807000287ED0089811
:102B700004F02AFA04464FF09D4104F0F3F881492D
:102B80000860099804F020FA04464FF09D4104F0D3
:102B9000E9F87D4908600A9804F016FA04464FF0F7
:102BA0009D4104F0DFF8794908600B9804F00CFAB5
:102BB00004464FF09D4104F0D5F87549086071480E
:102BC00001684FF0804004F05FFA06906F4801689A
:102BD000069804F059FA82466B4801684FF040406D
:102BE00004F052FA06906A480168069804F04CFA1C
:102BF0008346514604F048F8079004F019F88046DF
:102C000000F0ECFF06464FF06632624B03F000FD29
:102C1000044603F021FA604908605C4801684FF0FF
:102C2000804004F031FA039058480168039804F09A
:102C30002BFA8246544801684FF0404004F024FAD1
:102C4000039051480168039804F01EFA83465146E8
:102C500004F022FB81464FF07E5104F015F8044643
:102C600003F0E6FFCDE90401464800E081E0016899
:102C70004FF0804004F008FA834643480168584604
:102C800004F002FA8146414801684FF0804004F0A8
:102C9000FBF983463E480168584604F0F5F9824640
:102CA000494603F0F1FF044603F0C2FF0746DDE9A1
:102CB000042301F0DBF94FF06632364BCDE9060113
:102CC00003F0A6FC054603F0C7F934490860304814
:102CD0000168006804F0D8F903902C480168006886
:102CE00004F0D2F9029028480168006804F0CCF999
:102CF000834624480168006804F0C6F959460190EB
:102D000003F0C2FF8246029904F0C6FA8146039995
:102D100004F0C2FA044603F08BFFCDE904011C481D
:102D200001681848006804F0AFF982461748016846
:102D30001548006804F0A8F98346514603F0A4FF43
:102D400081464FF0804104F09FF9044603F070FF84
:102D50000746DDE9042301F089F94FF066320D4B97
:102D6000CDE9060103F054FC054603F075F90C4962
:102D700008600FB0BDE8F08FFC000020F6000020D6
:102D8000F0000020000100200401002008010020C4
:102D90000C01002066A64C40980000209C000020FA
:102DA000A00000200146022906D003290DD00429E5
:102DB00012D005291ED116E04FF08042928C10B23D
:102DC00000224FF080439A8416E00C4A128810B219
:102DD00000220A4B1A800FE0094A128810B2002222
:102DE000074B1A8008E0074A128810B20022054BF0
:102DF0001A8001E0002000BF00BF7047240400409B
:102E000024080040240C004010B5044C2060044C01
:102E10002160044C2260044C236010BD540000204B
:102E2000580000205C0000206000002030B5034600
:102E30000C461546002207E0184600F008F824F872
:102E400012009B1C501C82B2AA42F5DB30BD014629
:102E5000088870477047000000B58DB00121C80296
:102E6000FFF762FE01210D20FFF75EFE4FF4706058
:102E7000ADF8300018208DF8330003208DF83200B3
:102E80000CA93748FEF73AFA4FF48050ADF83000FD
:102E900018208DF8330003208DF832000CA931483A
:102EA000FEF72CFAC720ADF8280041F61F40ADF818
:102EB00024000020ADF82A00ADF8260009A92A4810
:102EC00000F00AFB7020ADF814000120ADF81600E8
:102ED000B920ADF81A000020ADF81C00ADF81E00B6
:102EE0004FF48070ADF8200005A91F4800F042FAA9
:102EF00008211D4800F08AFAC320ADF81A0005A980
:102F0000194800F08DFA0821174800F0D9FA4FF45B
:102F10000060ADF804004010ADF806008010ADF878
:102F200008000020ADF80A004FF48050ADF80C0006
:102F30004000ADF80E004000ADF8100001A90A48AD
:102F400000F0ECF90121084800F004FA01210648DC
:102F500000F0D8F90121044800F0F0F90DB000BDEF
:102F600000080140000C0140002C014010B5002079
:102F700001F03CFEBC2417E0A1B2104800F0A9FA11
:102F8000322001F065F900210C4800F0A2FA4FF45C
:102F90007A7001F05DF9BC21084800F09AFA4FF40C
:102FA000FA7001F055F9641EB72CE5DA00210348E8
:102FB00000F08FFA012001F019FE10BD002C014035
:102FC00010B5002001F012FEBC241BE0A1B2104895
:102FD00000F07FFA322001F03BF9C8210C4800F0E4
:102FE00078FA4FF47A7001F033F9BC21084800F008
:102FF00070FA4FF4FA7001F02BF9C821044800F080
:1030000068FA641CC02CE1DD012001F0EFFD10BD69
:10301000002C014010B500F001F810BD0CB50020E7
:10302000019000903348006840F4803031490860D6
:1030300000BF3048006800F4003000900198401C48
:103040000190009818B90198B0F5A06FF1D1294806
:10305000006800F4003010B10120009001E0002071
:1030600000900098012843D12348006840F01000E8
:10307000214908600846006820F0030008600846FF
:10308000006840F0020008601A484068194948602A
:103090000846406848600846406840F480604860E0
:1030A0000846406820F47C1048600846406840F4B8
:1030B000E81048600846006840F08070086000BF73
:1030C0000C48006800F000700028F9D009484068FA
:1030D00020F00300074948600846406840F00200BD
:1030E000486000BF0348406800F00C000828F9D190
:1030F0000CBD0000001002400020024070B50446E4
:103100000020002C06DD2518264E35800025264E91
:10311000356007E004F5E1552D1A224E3580012572
:10312000214E3560002909DDC1F5E1552D1A1D4EEE
:10313000361D358001251D4E356007E04D420544A2
:10314000184E361D35800025184E3560002A0ADDE0
:10315000C2F5E1552D1A134E083635800125124E61
:10316000361D356008E0554205440E4E0836358060
:1031700000250D4E361D3560002B08DD1D18094E4B
:103180000C3635800025094E361D356009E003F503
:10319000E1552D1A034E0C3635800125034E361DA0
:1031A000356070BD3434014090012242808121425B
:1031B00030B504460025FEF763FF1F48006840F461
:1031C00080301D49086000BF1B480068400C002883
:1031D000FAD04FF4806018494860A01EC4B2084677
:1031E000406840EA844048600846406840F48030C7
:1031F00048601248006840F03200104908600E48EC
:10320000006840F080700C49086000BF0A48006800
:10321000400E0028FAD00848406840F002000649F5
:10322000486005E004484068C0F3870505F00305E1
:10323000022DF7D130BD00000010024000200240F6
:103240007047000010B51348006840F001001149B4
:10325000086008464068104908400E494860084622
:1032600000680E4908400B4908600846006820F4D1
:10327000802008600846406820F4FE0048604FF453
:103280001F008860FFF7C6FE4FF000600449086029
:1032900010BD0000001002400000FFF8FFFFF6FE26
:1032A00008ED00E04FF08040008A4FF08040008A37
:1032B00020F001004FF080410882704704480088E8
:1032C0000348008820F00100014908807047000091
:1032D00010040040044800880348008820F00100E2
:1032E0000149088070470000100800400448008829
:1032F0000348008820F00100014908807047000061
:10330000100C004021B1028842F08002028004E0EB
:1033100002884FF67F731A40028070470A884B88F4
:103320001A438B881A43CB881A430B891A434B895B
:103330001A438B891A43A0F84420704721B10288B0
:1033400042F00102028004E002884FF6FE731A4048
:103350000280704731B1B0F8442042F40042A0F836
:10336000442005E0B0F84420C2F30E02A0F8442047
:103370007047000070B5002400220023058C4FF632
:10338000FE7635400584028C8388048B4FF68F755A
:103390002C40B51E2C400D882C43751E2A400D89EB
:1033A0002A434D882A43144DA8420BD0134DA842FE
:1033B00008D0134DA84205D0124DA84202D0124D9C
:1033C000A84213D14FF6F7752A404D892A434FF68C
:1033D000FB752A408D882A434FF6FF652B404FF638
:1033E000FF552B408D892B43CD892B43838004834C
:1033F000CD888586028470BD002C014000340140D8
:103400000040014000440140004801400A460021BC
:10341000018B4FF6F7731940114301837047000089
:1034200070B5002400220023058C4FF6FF6635405E
:103430000584028C8388848B4FF68F752C404FF661
:10344000FC752C400D882C434FF6FF552A400D8902
:103450004FF6FF7606EA05252A434D8806EA05253C
:103460002A43154DA84202D0144DA8421DD14FF257
:10347000FF752A404D894FF6FF7606EA05252A4357
:103480004FF6FF352A408D8806EA05252A434EF679
:10349000FF752B404DF6FF752B408D8906EA05150B
:1034A0002B43CD8906EA05152B4383808483CD8881
:1034B0008587028470BD0000002C0140003401406B
:1034C0000A460021818B4FF6F7731940114381831F
:1034D0007047818770470000002202881D4B984288
:1034E0000ED01D4B98420BD0B0F1804F08D01B4B33
:1034F000984205D01A4B984202D01A4B984204D1F8
:103500004FF68F731A404B881A43174B984207D0D7
:10351000164B984204D04FF6FF431A40CB881A430B
:1035200002808B8883850B8803850A4B98420BD0D9
:10353000094B984208D00E4B984205D00D4B98424B
:1035400002D00D4B984201D10B7A0386012383826E
:1035500070470000002C014000340140000400408E
:1035600000080040000C0040001000400014004023
:10357000004001400044014000480140014640F243
:103580005642914215DA012000220B4B1A801B1D76
:103590001A801B1D1A801B1D1A80084B1A60084BCD
:1035A000C3F88021054B1B1D1A60054BC3F884210D
:1035B00000E00020704700003434014090012242B6
:1035C000008021422DE9FF5F9648008800F020002E
:1035D00000287DD09348001D008893490860084664
:1035E00000684B2803D10120904908700AE08E48FA
:1035F0000068492803D08C4800684A2802D100207E
:103600008A4908708A48007800284DD18748007898
:10361000D0B985480068412809DB834800684828FC
:1036200005DC814800784038824908703CE07E48DB
:103630000068082804DC7C4800787E49087033E084
:1036400000207C4908702FE07848007801282BD1B1
:1036500075480068432806D100207749087001208A
:10366000764908700FE070480068472806D10120AD
:103670007149087000207149087004E000206E490B
:1036800008706E49087068480068412803D0664891
:103690000068452805D164480078403865490870BD
:1036A00002E00020634908705F4800687B2802D16F
:1036B0000120634908705C4800687D2802D102201F
:1036C0005F4908705E48007801280CD1564800E038
:1036D0007EE000785B495C4A127888545A4800784A
:1036E000401C5949087056480078022870D1554846
:1036F000C078502803D101205449087081E0514816
:10370000C078572803D101205149087079E04D480D
:103710004078232875D04C4800784E49087034E032
:10372000494909784B4A1278881A02F00AFF804604
:1037300042460B460020484901F0BAFE04460D46B9
:1037400044490978491E3F4A515CA1F1300002F01A
:10375000F8FE064622462B4602F05AFF82468B466A
:103760003E48006803F064FA52465B46CDE900012A
:1037700002F0A4FCCDE9020102F06EFC37490860BA
:1037800034480078401E33490870324800780428D5
:10379000C6DA2C4840783038092831D2DFE800F00A
:1037A000050C13191E23282E2F002C48006803F047
:1037B000CFFB2B49086023E02848006803F0C8FBD2
:1037C000284908601CE0254800682749086017E080
:1037D00024E0224800682549086011E01F4800687D
:1037E000234908600CE01D4800682249086007E092
:1037F0001A4800682049086002E002E000E000BFCB
:1038000000BF00200E4908700F4908701149087068
:103810001249086032210B48FCF719FD002004B062
:10382000BDE8F09F00440040E0000020950000202B
:103830006F0000200A00002008000020090000207E
:10384000E400002030060020E50000208300002076
:1038500084000020E600002000002440E800002052
:10386000C4000020C8000020B0000020B4000020E8
:10387000B8000020BC000020C000002010B5254882
:10388000008800F02000002842D02348007850B97A
:1038900022480078401CC0B2204908700A2802DD86
:1038A00001201D4908701B48001D0088C4B2204635
:1038B00003F0A2FB1A4908601A48007868B91A4850
:1038C0000078FE2809D119480078FF2805D1012089
:1038D0001449087000201649087012480078012821
:1038E0000FD1144812490978445411480078401CFB
:1038F0000F49087008460078082802D100200949BD
:10390000087009480078094908700748047000BF2A
:10391000002010BD0048004081000020DB00002096
:103920006800002082000020D9000020DA0000207A
:10393000D80000207800002010B58AB018A103C973
:10394000CDE9040102A806A907AB08AACDE9001039
:1039500009A90020FCF7A2FD00240FE0072C04D1E8
:1039600002A8005D104908700AE002A8005D04A9E1
:10397000095D884200D003E0601CC4B2072CEDDD75
:1039800000BF40F221110998884207D1064800780B
:1039900020B1064802990160039941600AB010BD48
:1039A0000A0C0F13181E2500800000207000002054
:1039B00000BFFEE71C4909684242914202DA4142D7
:1039C000194A116018490968814201DD16490860E9
:1039D000164909684242914202DA4142134A116093
:1039E00012490968814201DD1049086010490968DF
:1039F0004242914202DA41420D4A11600C49096883
:103A0000814201DD0A4908600A490968424291423F
:103A100002DA4142074A116006490968814201DD24
:103A2000044908607047000044000020480000205E
:103A30004C0000205000002030B51C4C246845424A
:103A4000AC4202DA4442194D2C60184C246884427E
:103A500001DD164C2060164C24684D42AC4202DA5F
:103A60004C42134D2C60124C24688C4201DD104CEA
:103A70002160104C24685542AC4202DA54420D4D8C
:103A80002C600C4C2468944201DD0A4C22600A4CE4
:103A900024685D42AC4202DA5C42074D2C60064C61
:103AA00024689C4201DD044C236030BD44000020AA
:103AB000480000204C00002050000020490050EA3F
:103AC000C12018BF04204A0D18BF40F0010040F289
:103AD000FF72B2EB515F08BF40F00200012808BF3F
:103AE000052070472DE9F0414F1E00EBC701044649
:103AF000D1E9000115461E4637F006020DD02A46D0
:103B0000334602F085FD7F1E04EBC703D3E9002393
:103B100002F0D4FA37F00602F1D1022F25D0042F9B
:103B200013D0062F18BFBDE8F0812A46334602F0B5
:103B30006FFDD4E90A2302F0C1FA2A46334602F0A7
:103B400067FDD4E9082302F0B9FA2A46334602F0A9
:103B50005FFDD4E9062302F0B1FA2A46334602F0AB
:103B600057FDD4E9042302F0A9FA2A46334602F0AD
:103B70004FFDD4E9022302F0A1FA2A46334602F0AF
:103B800047FDD4E90023BDE8F04102F097BA0000F8
:103B9000002213461046014902F04CBB0000F03FE2
:103BA000012203F020BC02F089BA0022134610461D
:103BB000114602F03FBB40F2013200204FF0E041DD
:103BC00003F011BC024A0020110703F00CBC0000F6
:103BD00001FDFFFF014600BF704700002DE9F04DD9
:103BE0008D4F21F0004A86B005460C46BA452ADBC7
:103BF000AAEB070028430AD08848824501DC1AD185
:103C0000CDB106B02846BDE8F04DFFF7C9BF844AE4
:103C1000844B284602F0FCFC07460E46824A834B42
:103C20002846214602F0F4FC06B03A463346BDE889
:103C3000F04D02F043BA0120FCF734FB06B0BDE8BA
:103C4000F04DFFF7B2BF7A48824542DABAF1795FA8
:103C50000BDA2846FFF732FF042808BFFFF7B2FF50
:103C6000284606B02146BDE8F08D2A460B46104690
:103C700002F0CEFC834602466E480E460B460621F5
:103C80007844FFF72FFF5A46334602F0C1FC8046C6
:103C900069488A465A46334604217844FFF722FF92
:103CA0005A46334602F0B4FC00223B4602F006FAC4
:103CB00002460B464046514602F0BCFA2A462346CD
:103CC00002F0A6FC06B02A462346BDE8F04D02F0FD
:103CD000F5B9284624F0004100223D463B4602F05B
:103CE000CBFD4FF0FF3203F07EFB06460246534801
:103CF0000F460B4606217844FFF7F4FE32463B465A
:103D000002F086FCCDE900014D4832463B460421D5
:103D10007844FFF7E7FE32463B4602F079FC00228A
:103D20002B4602F0CBF9834602913046394602F029
:103D3000F3F8804643480D46504517DCDDE90001A5
:103D40005A46029B02F076FA42462B4602F060FC8D
:103D500042462B4602F0B2F9012203F044FB304AFE
:103D6000304B02F07BFE304A304B4CE04FF0000A03
:103D700052460B46404602F0A1F9CDE903105246E7
:103D80002B461046194602F043FC32463B4602F0F1
:103D900073FDDDE9033202F04DFA06460F46DDE918
:103DA00000015A46029B02F045FA83460091012227
:103DB0003046394603F017FB194A1A4B02F05CFDF6
:103DC00006460F4601224046294603F00CFB5A46A0
:103DD000009B02F01DFC32463B4602F03FFE0646C9
:103DE0000F4601225046294603F0FDFA0E4DDFF83A
:103DF00058802A46434602F03FFD32463B4602F0D9
:103E00003BFD2A46434602F037FD002CD8BF81F027
:103E1000004106B0BDE8F08D0000F03F0000F07FEB
:103E2000075C143326A6913C182D4454FB21F93F1E
:103E30000000E03FA4420000BA4200002E42000011
:103E4000444200003333EF3FFB21E93F2DE9F84FB7
:103E500004460D4621F0004000917349814211DC77
:103E60007249884201DC06D12CB120462946BDE8C2
:103E7000F84FFFF795BE6E48002DCCBF6D496E49D7
:103E8000BDE8F88F6D49814211DD6D498142D8BF8F
:103E90004FF0FF366DDD20462946FFF70FFE042860
:103EA00008BFFFF78FFE20462946BDE8F88F654919
:103EB000654F25F00045814233DD6449814219DDBB
:103EC000002632464FF080432046294602F0F6F89D
:103ED00080468A4601222046294603F084FA0022C1
:103EE0003B4602F0BBFD4246534602F0A3F90446AE
:103EF0000D463EE001260022BA463B4620462946B2
:103F000002F0DCF880460F46002253462046294640
:103F100002F0A4FD42463B4602F08CF904460D46F1
:103F200027E04B4981421BDDDFF828A10226002251
:103F300053462046294602F06BFB00223B4602F026
:103F4000BDF880460F46002253462046294602F01F
:103F500085FD42463B4602F06DF904460D4608E0F9
:103F6000032622462B4600203B4902F063F9044613
:103F70000D4622462B461046194602F049FB8B4659
:103F8000824602460B4602F043FB07460246334890
:103F900088460B4606217844FFF7A4FD52465B464F
:103FA00002F036FB82462E488B463A4643460521B0
:103FB0007844FFF797FD3A46434602F029FB024654
:103FC0000B46002E504659460CDA02F077F822468E
:103FD0002B4602F01DFB01B022462B46BDE8F04FF8
:103FE00002F04ABC02F06AF822462B4602F010FBAF
:103FF0001C4A7A4402EBC603D3E9002302F02EFDEB
:1040000022462B4602F02AFD174A7A4402EBC603E9
:10401000D3E9002302F030FC009A002AB8BF81F0F7
:104020000041BDE8F88F0000000010440000F07F60
:10403000182D4454FB21F93FFB21F9BF0000DC3F60
:104040000000203E0000F33F0000F03F0000E63F8C
:10405000008003400000F83F0000F0BFCE400000A9
:104060008C4000002A400000F23F00002DE9F04D96
:104070009446CCF1000423F000464CEA0404524F6D
:1040800046EAD4749A46884621F00042BC4206D8DB
:10409000454240EA050442EAD474BC4204D9BDE872
:1040A000F04D6246FFF77FBDAAF14055A5F17F654F
:1040B00055EA0C040BD0022404EAAA74434DDFF83D
:1040C00010E144EAD87452EA000B04D00CE0BDE8D9
:1040D000F04DFFF7BBBE002C14BF012CBDE8F08DE6
:1040E000022C30D0032C32D056EA0C0B0AD0BE4240
:1040F00020D1BA4209D126F0804622F080423346D0
:10410000114617E000291ADB25E0DFF8C8B0FB44B0
:10411000002C04BFDBE90001BDE8F08D012C02BFDB
:10412000DBE9000181F00041BDE8F08D022C0AD0EE
:10413000032C0CD0BA4212D1B8F1000F0BDA23488D
:104140002549BDE8F08D28462449BDE8F08D284674
:104150007146BDE8F08D1D482149BDE8F08D921BE8
:1041600012153C2AC4BF19481D490EDCBAF1000FD4
:10417000BEBF12F13C0F0020014606DB624602F092
:1041800059F821F00041FFF761FE002C08BFBDE89F
:10419000F08D012C04BF81F00041BDE8F08D114A83
:1041A000114B022C07D002F059FC2A46BDE8F04D15
:1041B0000A4B02F053BC02F051FC2A46BDE8F04D18
:1041C000064B02F059BB00000000F07F182D44544C
:1041D000FB2109C0863F0000FB21F9BFFB210940FC
:1041E000FB21F93F075C143326A6A13C2DE9F041E1
:1041F0000446E07800F0C006E07800F03F05607803
:1042000000F0010098B1EF102846E91705EB517155
:10421000C910A5EBC101491C01F0FF080B4800685B
:1042200020B10A48414602683846904700BF60788E
:1042300000F0080030B10548406818B1B011034AD9
:10424000516888470020BDE8F08100006406002026
:1042500001460D4A12884A434FF0E0235A6100227A
:104260009A6101221A6100BF4FF0E022106900F04C
:1042700001021AB100F48032002AF5D000224FF07A
:10428000E0231A619A617047D20000204FF0E021CC
:10429000096921F004014FF0E0221161C21700EB1F
:1042A0005272C2F3C702074B1A701946097801EB24
:1042B0004102C2EBC1114FF6FF7202EAC101024A8C
:1042C00011807047D0000020D200002001460D4A26
:1042D00012884A434FF0E0235A6100229A6101227A
:1042E0001A6100BF4FF0E022106900F001021AB11C
:1042F00000F48032002AF5D000224FF0E0231A614A
:104300009A617047D200002001460D4A12784A4354
:104310004FF0E0235A6100229A6101221A6100BF26
:104320004FF0E022106900F001021AB100F480326F
:10433000002AF5D000224FF0E0231A619A617047FD
:10434000D000002010B50446012008490870002064
:104350000749086001E000F063FD05480068A042DD
:10436000F9DB00200149087010BD00006D0000203D
:10437000680100202DE9F04F8DB0074688461546AC
:104380009946DDE9166B0024002030806B49887B5C
:104390005A4605A900F046FA18B1601E0DB0BDE8F6
:1043A000F08F6648807A00F01400002867D09DF8EE
:1043B000140000069DF8151040EA01409DF8161003
:1043C00040EA01209DF81710084328609DF8180066
:1043D00000069DF8191040EA01409DF81A1040EAC5
:1043E00001209DF81B10084368609DF81C00000622
:1043F0009DF81D1040EA01409DF81E1040EA012082
:104400009DF81F100843A8609DF8200000069DF845
:10441000211040EA01409DF8221040EA01209DF859
:1044200023100843E86004F11000C4B228680014A7
:104430000190686800140290A86800140390E8686E
:104440000014049001984043029901FB0100039974
:1044500001FB0100049901FB010ABAF1706F02DB54
:10446000BAF1885F05DD00F03DFA00203080401E83
:1044700094E7B6F9000040F48070308000BF2F4808
:10448000807A00F0400020B305A9601C085C095D3B
:1044900040EA012000B2A8F8000005A9E01C095C70
:1044A00005AAA01C105C41EA002000B2A8F8020096
:1044B00005A9601D095C201D105C41EA002000B2C6
:1044C000A8F80400A01DC4B2B6F9000040F008002E
:1044D00030801A48408900F4C07008B305A9601CF8
:1044E000085C095D40EA012000B2388005A9E01CA3
:1044F000095C05AAA01C105C41EA002000B278808B
:1045000005A9601D095C201D105C41EA002000B275
:10451000B880A01DC4B2B6F9000040F07000308031
:104520000648807A00F0030018B105A90819FFF7C2
:104530005DFE484600F068FC00202FE7640600207E
:104540002DE9F04106460F4614461D46FDF71CFABC
:1045500010B90120BDE8F0817106080EFDF7E2F9FF
:10456000FDF76AFA18B9FDF743FA0120F2E7384679
:10457000FDF7D8F9FDF760FAFDF706FA012101EB26
:104580004601C8B2FDF7CEF9FDF756FA0DE0012C51
:1045900004D10020FDF78EF9287003E00120FDF71B
:1045A00089F928706D1C601EC4B2002CEFD1FDF794
:1045B0001FFA0020CEE72DE9F04105460E461746CA
:1045C0009846FDF7E1F910B90120BDE8F0816906D0
:1045D000080EFDF7A7F9FDF72FFA18B9FDF708FA4D
:1045E0000120F2E73046FDF79DF9FDF725FA00249A
:1045F0000BE018F80400FDF795F9FDF71DFA18B95E
:10460000FDF7F6F90020E0E7641CBC42F1DBFDF7A2
:10461000EFF90020D9E700000920FEF7C9FD482086
:10462000FFF734FEFEF718FC0220FDF71FFC012007
:10463000FDF71CFCFDF790FC002020490870FDF7F9
:10464000EDFE4FF41651242001F08CFCFCF7AAFB80
:10465000FCF720FCFCF78CFCFCF7F8FCFBF786FE73
:10466000FDF7ECF8FDF7BFFC002141F61F40FDF718
:10467000BFFD1348006808B9FCF7A6FDFCF768FB0E
:10468000FCF7FAFAFCF782F8FCF768F801200D490C
:1046900008704870C820FFF755FE0BA228210A2099
:1046A000FEF73AF8FDF774FFC820FFF74BFE03E072
:1046B00007490A20FDF78AFCFAE700006F00002096
:1046C00038812142000000205374617274000000A0
:1046D000801A060070B50446002624F0010418482C
:1046E00090F8240008B1002070BD1548807A10B9F8
:1046F0004FF0FF30F8E71248057C807A20401049DF
:1047000008740846007CA04202D04FF0FF3600E05B
:10471000002614B90A48007D18B1012001F0B4FB4D
:1047200002E0002001F0B0FB3CB100F0DBF820B16A
:10473000034805744FF0FF30D6E73046D4E7000059
:104740002001002038B50446282C02DD4FF0FF3050
:1047500038BDDCB9002000F091FA00208DF800008F
:1047600007208DF801002E4A1268917C2C4A52686D
:1047700010786B460222FFF71EFF10B14FF0FF309A
:10478000E6E70021264801750020E1E7012000F05E
:1047900075FA20208DF80000012C06D100208DF83C
:1047A0000100052000F0A0FA17E0052C06DC01202E
:1047B0008DF80100052000F097FA0EE0142C06DCBD
:1047C00002208DF801000A2000F08EFA05E0032097
:1047D0008DF80100142000F087FA9DF801000721F0
:1047E00001EB8010C0B28DF801000D4A1268917C77
:1047F0000B4A526810786B460222FFF7DCFE10B1BC
:104800004FF0FF30A4E708210548817200210173B1
:10481000012101750020FFF75DFF002098E70000EF
:1048200020010020F8B504460F4616462C4890F8A3
:10483000240010B94FF0FF30F8BD2948807A10B934
:104840004FF0FF30F8E7264A1268917A244A5268FE
:1048500010786B460222FFF773FE10B14FF0FF3065
:10486000EAE79DF801009DF8001040EA0125A54205
:1048700003DA00203070401EDEE7194840684088A7
:10488000B5EB600F17DD164A1268517C144A526866
:1048900010786B460122FFF753FE10B14FF0FF3046
:1048A000CAE79DF8000000F0100020B100F01AF8EF
:1048B0006FF00100C0E7E2B2094B1B68D97A084BE0
:1048C0005B6818783B46FFF73BFE10B14FF0FF30B6
:1048D000B2E795FBF4F0401E30700020ACE700001A
:1048E0002001002008B56D48807A10B94FF0FF30E4
:1048F00008BD00200090694A1268D17B674A52685F
:1049000010786B460122FFF756FE10B14FF0FF30D2
:10491000EEE7624A12685179604A526810786B4635
:104920000122FFF748FE10B14FF0FF30E0E75B4A8D
:1049300012681179594A526810786B460122FFF7C4
:104940003AFE10B14FF0FF30D2E7544890F82400FF
:10495000002850D00C200090504A126811794F4A1C
:10496000526810786B460122FFF725FE10B14FF018
:10497000FF30BDE7C02000904848807A00F0010079
:1049800020B19DF8000040F020000090434A1268DA
:104990001179424A526810786B460122FFF70BFEEC
:1049A00010B14FF0FF30A3E73C48407C10B102202B
:1049B000009001E000200090384A1268D17B374A0D
:1049C000526810786B460122FFF7F5FD10B14FF0E9
:1049D000FF308DE700200090304A126851792F4A4D
:1049E000526810786B460122FFF7E5FD002852D08F
:1049F0004FF0FF307CE704200090284A12681179BC
:104A0000264A526810786B460122FFF7D4FD10B198
:104A10004FF0FF306CE72148807C20B91F48807A36
:104A200000F0010010B94020009001E060200090EB
:104A30001A4A12681179194A526810786B46012295
:104A4000FFF7B9FD10B14FF0FF3051E71348407C3C
:104A500010B10120009001E0002000900F4A126880
:104A6000D17B0E4A526810786B460122FFF7A3FDF6
:104A700010B14FF0FF303BE7084A12685179074AFE
:104A800052681078054B10330122FFF794FD10B1E6
:104A90004FF0FF302CE700202AE700002001002023
:104AA00038B504465048807CA04201D1002038BD72
:104AB000002C46D04C4A126811794B4A5268107843
:104AC0006B460122FFF73CFD10B14FF0FF30EEE7DF
:104AD0009DF8000020F020000090434A12681179F0
:104AE000414A526810786B460122FFF764FD10B10D
:104AF0004FF0FF30DBE70320FFF7E8FB02200090D8
:104B0000394890F8220020B19DF8000040F0800064
:104B10000090354890F8230020B19DF8000040F047
:104B200030000090304A1268117D2F4A5268107888
:104B30006B460122FFF73FFD002851D04FF0FF30B8
:104B4000B5E7294A12681179274A526810786B46EE
:104B50000122FFF7F5FC10B14FF0FF30A7E7224824
:104B6000807A00F0010028B19DF8000040F020009C
:104B7000009004E09DF8000020F0200000901A4A08
:104B800012681179184A526810786B460122FFF7B3
:104B900012FD10B14FF0FF3089E70320FFF796FBBD
:104BA000114890F8220010B18020009001E0002010
:104BB00000900D4890F8230020B19DF8000040F0CF
:104BC00030000090084A1268117D074A5268107838
:104BD0006B460122FFF7EFFC10B14FF0FF3066E7A4
:104BE00001488474002062E72001002038B50446A3
:104BF000214890F82400A04201D1002038BD24B300
:104C00001D4890F8250010B94FF0FF30F6E700205E
:104C100001F03AF90020FFF743FF1749C88C00F074
:104C2000A5F8002000901449496808786B460122D5
:104C30002321FFF7C0FC01210F4880F82410012038
:104C400001F022F9FFF74EFE13E0002001F01CF9FD
:104C50000948007C00900849496808786B460122A1
:104C60002321FFF7A8FC0021034880F82410FFF758
:104C700039FE0020C2E700002001002038B50446BC
:104C8000184890F82300A04201D1002038BD14B18B
:104C90003020009001E0002000901248807C20B17C
:104CA0009DF8000040F0020000900E4890F82200AD
:104CB00020B19DF8000040F080000090094A126881
:104CC000117D084A526810786B460122FFF773FC89
:104CD00010B14FF0FF30D9E7024880F823400020A0
:104CE000D4E700002001002038B504461E48807A31
:104CF00010B94FF0FF3038BDBC2C02DB0120009012
:104D000015E0622C02DB0220009010E02A2C02DB6E
:104D1000032000900BE0142C02DB0420009006E03E
:104D20000A2C02DB0520009001E0062000900E48CE
:104D3000C07A9DF80010884201D10020DBE70A4AC2
:104D400012689178084A526810786B460122FFF782
:104D500032FC10B14FF0FF30CDE79DF80010024853
:104D6000C1720020C7E700002001002038B50446CA
:104D70002448807A10B94FF0FF3038BD214890F8B0
:104D8000240010B14FF0FF30F7E71E48007D50B10E
:104D900034B1282C04DCE0B2FFF7D4FC0020ECE7AF
:104DA0000020FFF7CFFC042C01DA042404E0B4F562
:104DB0007A7F01DD4FF47A744FF47A7090FBF4F04F
:104DC000401EC0B200900F4A126851780D4A5268D6
:104DD00010786B460122FFF7EEFB10B14FF0FF3069
:104DE000CBE79DF80000401C4FF47A7191FBF0F086
:104DF00081B20448C1810146C9894810FFF774FF98
:104E00000020BAE720010020704710B502460120BB
:104E100000E050430B1EA1F10104E1B2F9D110BD35
:104E200038B5F8A200210846FDF776FC0021F648C7
:104E3000006802F0F5F811D2F449F348006801F077
:104E400023FF054602F0A0F804460C200323224667
:104E5000002100900F20FDF715FC0CE0EA480068E7
:104E600002F092F804460C20032322460021009011
:104E70000F20FDF707FCE6A200212820FDF74CFCDF
:104E80000021E448006802F0CBF811D2DF49E14884
:104E9000006801F0F9FE054602F076F804460C20A1
:104EA00003232246002100903720FDF7EBFB0CE0A6
:104EB000D848006802F068F804460C200323224614
:104EC000002100903720FDF7DDFBD3A20021502008
:104ED000FDF722FC0021D148006802F0A1F811D2B0
:104EE000CA49CE48006801F0CFFE054602F04CF8F2
:104EF00004460C2003232246002100905F20FDF78A
:104F0000C1FB0CE0C548006802F03EF804460C20E6
:104F100003232246002100905F20FDF7B3FBC04829
:104F20000078002879D1BF48006800280FDABEA2B7
:104F30000A210020FDF7F0FB0C2005230090B94862
:104F4000006842420A210F20FDF79CFB0DE0B7A24A
:104F50000A210020FDF7E0FB0C2005230090B1485A
:104F60000A2102680F20FDF78DFBB1480068002878
:104F70000FDAADA20A215020FDF7CEFB0C2004234E
:104F80000090AB48006842420A215F20FDF77AFB9F
:104F90000DE0A6A20A215020FDF7BEFB0C20042341
:104FA0000090A3480A2102685F20FDF76BFBA1482F
:104FB000006800280FDA9CA214210020FDF7ACFB4A
:104FC0000C20052300909B480068424214210F20CA
:104FD000FDF758FB0DE095A214210020FDF79CFB86
:104FE0000C20052300909348142102680F20FDF740
:104FF00049FB91480068002810DA8BA21421502048
:10500000FDF78AFB0C20042300908B480068424285
:1050100014215F20FDF736FB0EE096E083A21421F9
:105020005020FDF779FB0C200423009082481421C6
:1050300002685F20FDF726FB8048006800280FDA31
:1050400079A21E210020FDF767FB0C2005230090AC
:105050007A48006842421E210F20FDF713FB0DE045
:1050600072A21E210020FDF757FB0C2005230090A3
:1050700072481E2102680F20FDF704FB704800688B
:1050800000280FDA68A21E215020FDF745FB0C20F6
:10509000042300906A48006842421E215F20FDF709
:1050A000F1FA0DE061A21E215020FDF735FB0C2026
:1050B0000423009062481E2102685F20FDF7E2FA97
:1050C0006048006800280FDA57A228210020FDF769
:1050D00023FB0C20052300905A48006842422821F7
:1050E0000F20FDF7CFFA0DE050A228210020FDF798
:1050F00013FB0C20052300905248282102680F2042
:10510000FDF7C0FA5048006800280FDA46A22821AF
:105110005020FDF701FB0C20042300904A48006852
:10512000424228215F20FDF7ADFA54E13FA2282139
:105130005020FDF7F1FA0C2004230090424828216A
:1051400002685F20FDF79EFA45E1354800780128A6
:10515000EBD13448006800280FDA33A20A2100207E
:10516000FDF7DAFA0C20052300902E480068424231
:105170000A210F20FDF786FA0DE02CA20A2100205B
:10518000FDF7CAFA0C200523009026480A21026880
:105190000F20FDF777FA2D48006800280FDA22A2C9
:1051A0000A215020FDF7B8FA0C200423009027486C
:1051B000006842420A215F20FDF764FA0DE01BA25D
:1051C0000A215020FDF7A8FA0C20042300901F4864
:1051D0000A2102685F20FDF755FA1648006800288A
:1051E00036DA11A214210020FDF796FA0C200523CF
:1051F000009010480068424214210F20FDF742FA47
:1052000035E00000583A0000980000200000B44348
:10521000593A00009C0000205A3A0000A0000020EB
:105220006F000020540000202D0000002B00000023
:105230001000002058000020140000205C00002016
:1052400018000020600000201C000020200000202A
:10525000AFF2280214210020FDF75EFA0C2005238E
:1052600000908348142102680F20FDF70BFA814853
:105270000068002810DAAFF2500214215020FDF728
:105280004BFA0C20042300907A4800684242142113
:105290005F20FDF7F7F90EE0AFF270021421502005
:1052A000FDF73AFA0C20042300907248142102689A
:1052B0005F20FDF7E7F970480068002810DAAFF2C8
:1052C00098021E210020FDF727FA0C2005230090EC
:1052D0006948006842421E210F20FDF7D3F90EE015
:1052E000AFF2B8021E210020FDF716FA0C200523AC
:1052F000009061481E2102680F20FDF7C3F95F4846
:105300000068002810DAAFF2E0021E215020FDF7FD
:1053100003FA0C20042300905848006842421E21E2
:105320005F20FDF7AFF90EE0AFF200121E21502012
:10533000FDF7F2F90C200423009050481E2102686A
:105340005F20FDF79FF94E480068002810DAAFF2A1
:10535000281228210020FDF7DFF90C2005230090FA
:1053600047480068424228210F20FDF78BF90EE0E4
:10537000AFF2481228210020FDF7CEF90C200523BA
:1053800000903F48282102680F20FDF77BF93D4837
:105390000068002810DAAFF2701228215020FDF7C3
:1053A000BBF90C20042300903648006842422821B3
:1053B0005F20FDF767F90EE0AFF290122821502030
:1053C000FDF7AAF90C20042300902E48282102683A
:1053D0005F20FDF757F92C48007828B92BA232211D
:1053E0000020FDF799F908E027480078012804D14A
:1053F00029A232210020FDF78FF92AA2322158205C
:10540000FDF78AF928A232216E20FDF785F9274899
:105410000068642190FBF1F40C2002232246322123
:1054200000904B20FDF72EF920480068642190FB86
:10543000F1F201FB12040C200223224632210090DB
:105440006220FDF71FF919480068642190FBF1F212
:1054500001FB12000A2807DA0C2002230022322165
:1054600000905C20FDF70EF9FDF792F838BD0000C2
:1054700058000020240000205C00002028000020AC
:10548000600000202C0000206F00002056454C4F8B
:105490004349545900000000504F534954494F4E5E
:1054A000000000002E0000005600000064000020F4
:1054B0002DE9F04D1D460C4698B0174621F00041ED
:1054C00023F00043002814BF4FF0010C4FF0000CF4
:1054D0000CEB440CFE4A0CEB02064FEA620C6645EC
:1054E0002BD33E0018BF012606EB45061644F94AA9
:1054F000964222D3F84A53EA070C02D0944205D1CF
:1055000048B918B000201146BDE8F08D002808BF4A
:105510004FF0000C01D04FF0010C0CEB440212F5DF
:10552000001F0AD8002F14BF4FF0010C4FF0000CE1
:105530000CEB450212F5001F07D918B03A462B466E
:105540002146BDE8F04DFEF72EBB0022DFF88CA30C
:10555000002CB8BF534526DADFF884C36345A8BFE3
:10556000022220DADFF870C39C451CDCDFF874C32C
:105570000CEB235CBCF1140F08DDCCF1340627FAE8
:1055800006FC0CFA06F6BE420DD108E05FB9CCF17C
:10559000140623FA06FC0CFA06F69E4203D10CF020
:1055A0000102C2F1020251EA000C19D1002D17DAF2
:1055B000002C18BF022A01D0012A07D00220FAF7D6
:1055C00071FE18B0BDE8F04DFEF7E2BA0220FAF71E
:1055D00069FEFEF7DDFA18B081F00041BDE8F08DFC
:1055E000B7F1000C6CD1534525D104F1804212F57E
:1055F000801201BF00280020B74918B008BFBDE8DD
:10560000F08DB548884207DC002DA1BF60462946D1
:1056100018B0BDE8F08D07E0281E05DA80F00041E3
:1056200018B06046BDE8F08DAF497944D1E900017A
:1056300018B0BDE8F08DDFF8A0C2634525D1002D7C
:105640001FDA19B1514512D1D8B909E0002840F04C
:10565000EC82A24A214618B062F31E01BDE8F08D2B
:105660000020214618B060F31E01BDE8F08D08DA75
:1056700018B02346BDE8F04D02460020614600F018
:10568000D9BD18B02146BDE8F08D514518DAB5F105
:10569000804F0DD0A5F1005CBCF1FF5C10D1B4F1DE
:1056A000000C0DDB18B06146BDE8F04D00F034BCD5
:1056B000234618B00246BDE8F04D194600F0A8BFD9
:1056C000060024F0004C3BD1D9B1514533D1002C18
:1056D00006DD002DA1BF0020514618B0BDE8F08DB9
:1056E000002C01DD002D1BDB002C13DA002D11DB5B
:1056F000012A4FF0000014BF78497C4918B0BDE87A
:10570000F08D022A18BF002C0AD0012A08D1002CE3
:1057100006DA0AE0002CB8BF002D11DA012A04D005
:10572000002018B00146BDE8F08D18B000204FF001
:105730000041BDE8F08DA1F14050B0F17F601AD07A
:10574000012000EBE47050EA020421D0624C521EAA
:105750004FF0000B104304BF4FF0000B644C654842
:1057600083427CDD644A654893421FDD884217DB33
:10577000002D25DB37E0002C00DA4AB1022A0CBFED
:1057800001204FF0FF3018B0BDE8F04D00F0D9BE59
:105790000120FAF787FD18B0BDE8F04DFEF705BA15
:1057A0004D4A8A4202DC002D0ADC1CE0814202DA0A
:1057B000002D18DA04E0484B994220DD002D12DD5F
:1057C0000220FAF76FFDFEF7F6F905460E460022B5
:1057D00053465846214600F01BFF18B066F31E01E1
:1057E0002846BDE8F08D0220FAF75CFDFEF7EAF9E5
:1057F0000A46214618B062F31E01BDE8F08D002272
:105800003046614601F02AF980460E466FF00102EB
:1058100001F0E9FD4FF05532394B01F02DF84246C9
:10582000334600F0F5FE0022364B01F025F88246A3
:105830004246334604911046194600F0E9FE5246AE
:10584000049B00F0E5FE8A4600904FF0C0422E4BCC
:105850004046314600F0DCFE2C4A2B4B00E027E0AE
:10586000CDE906015146009800F0D2FE8246019132
:10587000274A284B4046314600F0CAFE5246019B5B
:1058800001F0ECF882460B4602460591DDE906017F
:1058900000F014FCDDE9062300268846304601F0BE
:1058A000DDF85246059B00F0E7FF024600F07EB9A6
:1058B0000020B1F5801F07DA35223046614601F03D
:1058C00092FD06466FF0340000EB215024E000000A
:1058D000FFFF1F00FFFF0F000000F03F0000F07F00
:1058E0000000404301FCFFFF6A2A00000000F0FFB7
:1058F0000000F0BF0000E0410000F043FFFFEF3F79
:105900005555D53F0000E03F4715F73FFE822B6518
:1059100044DF5DF80BAE543EA0F2FF300190C1F3BE
:10592000130040F07F6141F040510291FE498842EE
:10593000D8BF002004DDFD498142C8BF012001DD40
:105940000D9008E000200D900198401C01900298F5
:10595000A0F5801002900299F54878440B910D99BA
:1059600000EBC100D0E900230F9330460A920B9957
:1059700001F074F8CDE90601DDE90A2130460F9BFC
:1059800000F09CFB02460B460020EA4900F052FC66
:10599000059102460B460090DDE9060100F038FE55
:1059A0001490E5488A464FF0000878440299006850
:1059B00012904FF0005040EA61010D980F9B01EBEF
:1059C000804000F5002109910A9A129801F046F8EA
:1059D00032460B9B00F050FF4246534600F018FE43
:1059E0000646029140465146099B129A00F010FE6D
:1059F000DDE9062300F040FF3246029B01F02EF85D
:105A0000059B009A00F004FE0091149A04905346FE
:105A10001046194600F0FCFD06460246C7480B46F4
:105A2000029106217844FEF75DF8CDE90510029B4E
:105A300032461046194600F0EBFDDDE9053200F074
:105A4000E7FD05910646534640461946149A00F074
:105A500035FB009B049A00F0DBFD3246059B00F00D
:105A60002DFBCDE90510424653461046194600F07D
:105A7000CFFD0022B24B02910A9000F01FFBDDE93E
:105A8000053200F01BFB0E464246AD4B404600F08F
:105A9000E5FF029B0A9A00F0E1FFDDE9053200F024
:105AA000EBFE424602910A9033461046514600F002
:105AB000AFFDCDE906015346149A02990A9800F009
:105AC000A7FD8A460290334642460099049800F0AA
:105AD0009FFD5346029A00F0F1FA82460B460246B9
